:100000000C9409010C94A9180C94D6180C94310185
:100010000C9431010C9431010C9431010C94310198
:100020000C9431010C9431010C9431010C94310188
:100030000C9431010C9431010C9431010C94310178
:100040000C9403190C9431010C940A1A0C9431018C
:100050000C9431010C9431010C9431010C94310158
:100060000C9431010C943101485454502F312E30EE
:1000700020323030204F4B00485454502F312E3016
:1000800020343034204E6F7420466F756E6400202B
:10009000485454502F312E3000417574686F726986
:1000A0007A6174696F6E3A2042617369632000431C
:1000B0006F6E74656E742D4C656E6774683A20209F
:1000C00020202000557365722D4167656E743A20BB
:1000D00057695365727665722F312E3100436F6E0A
:1000E00074656E742D547970653A206170706C6916
:1000F000636174696F6E2F782D7777772D666F72D5
:100100006D2D75726C656E636F64656400504F533E
:100110005420004745542000486F73743A20007300
:1001200074617475733D00414243444546474849F4
:100130004A4B4C4D4E4F50515253545556575859A7
:100140005A6162636465666768696A6B6C6D6E6F3D
:10015000707172737475767778797A30313233349E
:1001600035363738392B2F00536D656C6C79436108
:100170007400616263646531323334350001020317
:100180000405060708090A0B0C0D0000000000001A
:10019000000000000000000000000000000000005F
:1001A000000000000000000000000000000000004F
:1001B0000000000000240027002A000000000025A5
:1001C0000028002B00000000002300260029000466
:1001D00004040404040404020202020202030303EE
:1001E00003030301020408102040800102040810E8
:1001F0002001020408102000000007000201000096
:100200000304060000000000000000006E14C9177F
:10021000531B11241FBECFEFD8E0DEBFCDBF12E0CD
:10022000A0E0B1E0E0EDFAE302C005900D92AE333C
:10023000B107D9F715E0AEE3B2E001C01D92AD39C8
:10024000B107E1F712E0C2E1D2E004C02297FE015B
:100250000E94621DCC30D107C9F70E9468180C9427
:10026000661D0C940000CF93DF93BC018230910592
:1002700010F462E070E0A0919B05B0919C05ED0147
:10028000E0E0F0E040E050E021C0888199818617ED
:10029000970769F48A819B81309719F09383828351
:1002A00004C090939C0580939B05FE0134C06817A1
:1002B000790738F44115510519F08417950708F4AA
:1002C000AC01FE018A819B819C01E9012097E9F63E
:1002D00041155105A9F1CA01861B970B049708F433
:1002E000BA01E0E0F0E02AC08D919C91119784174B
:1002F0009507F9F46417750781F412968D919C9116
:100300001397309719F09383828304C090939C05D0
:1003100080939B05FD0132964CC0CA01861B970B4A
:10032000FD01E80FF91F6193719302978D939C93E0
:1003300040C0FD01828193819C01D9011097A1F6F3
:100340008091990590919A05892B41F4809103023F
:100350009091040290939A0580939905409105022B
:10036000509106024115510541F44DB75EB7809199
:10037000010290910202481B590B2091990530917E
:100380009A05CA01821B930B8617970780F0AB0171
:100390004E5F5F4F8417950750F0420F531F5093E5
:1003A0009A0540939905F9016193719302C0E0E0C9
:1003B000F0E0CF01DF91CF910895CF93DF930097C5
:1003C00009F450C0EC0122971B821A82A0919B0570
:1003D000B0919C05109709F140E050E0AC17BD07C3
:1003E00008F1BB83AA83FE0121913191E20FF31F33
:1003F000AE17BF0779F48D919C911197280F391F83
:100400002E5F3F4F3983288312968D919C911397CD
:100410009B838A834115510571F4D0939C05C09349
:100420009B0520C012968D919C911397AD0100976A
:1004300011F0DC01D3CFFA01D383C2832191319132
:10044000E20FF31FCE17DF0769F488819981280F27
:10045000391F2E5F3F4FFA01318320838A819B81B0
:1004600093838283DF91CF910895FB01DC0102C069
:1004700005900D9241505040D8F70895FC01059029
:100480000020E9F7809590958E0F9F1F0895FB013E
:10049000DC0102C001900D9241505040D8F7089500
:1004A000DC0101C06D9341505040E0F70895FB011D
:1004B000DC014150504030F08D910190801919F4C9
:1004C0000020B9F7881B990B08950E944B190895D5
:1004D00090E05EE34EE23FE32FEF5093450210922F
:1004E0004602409347022A98A5E4B2E0FD018081CC
:1004F0008EBD0DB407FEFDCF8EB5819382E0E8344A
:10050000F807A9F72A9A30934502992311F08FE052
:1005100001C080E880934602209347022A988C917C
:100520008EBD0DB407FEFDCF8EB58D9382E0A8344D
:10053000B807A9F72A9A913011F091E0CECF8EE357
:1005400080934502109246028AE2809347022A98DD
:1005500020E030E0F901EB5BFD4F80818EBD0DB4F2
:1005600007FEFDCF8EB580832F5F3F4F23303105CF
:1005700089F72A9A9FE790934502109246021092BB
:1005800047022A9820E030E0F901EB5BFD4F8081C3
:100590008EBD0DB407FEFDCF8EB580832F5F3F4F1C
:1005A0002330310589F72A9A8091460284FFE3CFF0
:1005B0009FE69093450210924602109247022A98B5
:1005C00020E030E0F901EB5BFD4F80818EBD0DB482
:1005D00007FEFDCF8EB580832F5F3F4F233031055F
:1005E00089F72A9A80914602882321F48091470254
:1005F0008823F9F208958EE6809345021092460210
:10060000109247022A98A5E4B2E0FD0180818EBDD8
:100610000DB407FEFDCF8EB5819382E0E834F80774
:10062000A9F72A9A8DE2809345028FEF80934602C4
:1006300080934702108211822A988C918EBD0DB44E
:1006400007FEFDCF8EB58D9382E0AA34B807A9F7D7
:100650002A9A0895282F82E4809345021092460238
:100660002A98A5E4B2E0FD0180818EBD0DB407FE9D
:10067000FDCF8EB5819382E0E734F807A9F72A9A77
:1006800081E08093450230914602662311F0922F5B
:1006900001C090E0822F80958323982B909347028E
:1006A000209346022A988C918EBD0DB407FEFDCF93
:1006B0008EB58D9382E0A834B807A9F72A9A0895D9
:1006C000E89881E080934A02089581E4809345028E
:1006D00010924602109247022A98E5E4F2E08081E7
:1006E0008EBD0DB407FEFDCF8EB5819382E0E83458
:1006F000F807A9F72A9A21E09091470280914602D3
:10070000982397FF15C02093450280E88093460206
:100710002A98339780818EBD0DB407FEFDCF8EB52C
:10072000819382E0E734F807A9F72A9A85E316C097
:1007300096FF5FC02093450280E4809346022A988A
:10074000339780818EBD0DB407FEFDCF8EB58193AA
:1007500082E0E734F807A9F72A9A83E3806480935C
:10076000450210924602109247022A98E5E4F2E010
:1007700080818EBD0DB407FEFDCF8EB5819382E0E2
:10078000E834F807A9F72A9A9091460280E0209170
:10079000470230E0282B392B3F70A0915002B091D6
:1007A000510280E88C932F5F3F4F2A9840E050E041
:1007B000FD01E40FF51F80818EBD0DB407FEFDCF56
:1007C0008EB580834F5F5F4F4217530788F32A9A95
:1007D00080ED809345022A98809145028EBD0DB42C
:1007E00007FEFDCF8EB5809345022A9A81E0809363
:1007F0004B0210924A02E89A0895DC0180EA809345
:10080000450281E08093460280934702109248029D
:10081000109249022A98E5E4F2E080818EBD0DB481
:1008200007FEFDCF8EB5819382E0EA34F807A9F781
:100830008AEA16968C93169717968C93179783E0EF
:1008400018968C9318971B961C921B971A961C92BD
:100850001A9719961C9219972A9820E030E00CC03C
:10086000FD01E20FF31F80818EBD0DB407FEFDCFA9
:100870008EB580832F5F3F4F2617370788F32A9A5C
:1008800080EC809345022A98809145028EBD0DB47C
:1008900007FEFDCF8EB5809345022A9A0895809178
:1008A0004E02882319F420E030E006C010924E0278
:1008B0002091520230915302C901089580934D0254
:1008C00008958091440208959093510280935002BC
:1008D000709353026093520208958EE392E008955C
:1008E000CF93DF93EB01E0915002F0915102958993
:1008F000868988839983DF01159686E00D900192A1
:100900008150E1F78091500290915102DC011696DE
:10091000FC013B9686E001900D928150E1F7209119
:10092000500230915102B901645F7F4F235E3F4F07
:1009300048815981CB01B9010E9447028881998180
:100940000C9699838883DF91CF9108950F931F931D
:100950008C0183E0D8018C938DE011968C931197D4
:1009600012961C9212978091050313968C93F801AE
:10097000349680E2DF011D928A95E9F740910503E4
:10098000CF0168E671E050E00E943502C80184960C
:100990006DE771E044E350E00E9435021F910F9132
:1009A00008950F931F93CF93DF9380914D02882377
:1009B00099F080914F02882379F4609152027091EE
:1009C000530280915002909151020E94FD031092B7
:1009D0004D0281E080934F0280914A02882311F0FA
:1009E0000E94650380914B02882309F47EC0E09148
:1009F0005002F09151028181823081F0833020F4E5
:100A0000813009F070C007C0833009F441C08430E0
:100A100009F069C03FC010924F0265C093819130C8
:100A200009F061C082818C3029F18D3030F488303A
:100A3000E9F18A3009F057C01BC0833129F18431B4
:100A4000A1F1803109F04FC0878180933E028085FB
:100A500080933F028185809340028285809341028A
:100A600083858093420284858093430286E01EC082
:100A700088E01CC0A4E5B2E0379680E201900D92B8
:100A80008150E1F787E012C0299A909344022BC06D
:100A900084E00CC08281813030F1833018F08430E2
:100AA00011F507C029981092440283E080934C020C
:100AB0001AC0938180E0248130E0282B392B21302B
:100AC000310519F02530310521F42998109244029E
:100AD0000AC02230310519F02630310521F4299A57
:100AE00081E08093440210924B0290914C0294302A
:100AF00009F40FC2953040F4923091F0933008F031
:100B0000ADC1992359F013C2973009F4FCC0983055
:100B100009F455C1963009F00AC244C082E005C20A
:100B2000E0915002F091510280EB8083E0915002FD
:100B3000F09151029183E0915002F091510280E1D5
:100B40008283E0915002F09151021382E0915002B1
:100B5000F091510281E08483209150023091510242
:100B60002A98C901FC019C012B5F3F4F80818EBDFB
:100B70000DB407FEFDCF8EB58193E217F307B1F7F1
:100B80002A9AE0915002F091510280EC8083E0912A
:100B90005002F09151022A9880818EBD0DB407FE5B
:100BA000FDCFB3C180911502813041F0813020F03A
:100BB000843008F0BCC141C088E0B7C1E091500268
:100BC000F091510280EB8083E0915002F09151024C
:100BD00082E08183E0915002F09151028AE08283A9
:100BE000809150029091510203960E94A604209198
:100BF0005002309151022A98C901FC019C01255AEA
:100C00003F4F80818EBD0DB407FEFDCF8EB5819321
:100C1000E217F307B1F72A9AE0915002F0915102DE
:100C200080EC8083E0915002F09151022A988081FB
:100C30008EBD0DB407FEFDCF68C1E0915002F0916A
:100C4000510280EB8083E0915002F091510282E0EA
:100C50008183E0915002F09151028CE082830091F7
:100C6000500210915102F8013396D80113961C924C
:100C70008091060381838091050382831382F801AA
:100C8000379680E2EF0119928A95E9F740910503C2
:100C9000CF0168E671E050E00E943502095D1F4F08
:100CA00080E4F80111928A95E9F740910603C801A2
:100CB00062E771E050E00E943502209150023091CD
:100CC00051022A98C901FC019C0129593F4F80819A
:100CD0008EBD0DB407FEFDCF8EB58193E217F307ED
:100CE000B1F72A9AE0915002F091510280EC808392
:100CF000E0915002F09151022A9880818EBD0DB48E
:100D000007FEFDCF02C1E0915002F091510280EB4D
:100D10008083E0915002F091510282E08183E09162
:100D20005002F091510288E08283009150021091AC
:100D30005102D8011396E8011B8280910503119698
:100D40008C931197F801359680E2EF0119928A95FC
:100D5000E9F711964C91CF0168E671E050E00E94EE
:100D60003502D8019596E4E5F2E080E201900D921B
:100D70008150E1F780915002909151022A989C0194
:100D8000F9012B5B3F4F80818EBD0DB407FEFDCF77
:100D90008EB58193E217F307B1F72A9AE0915002DA
:100DA000F091510280EC8083E0915002F091510269
:100DB0002A9880818EBD0DB407FEFDCFA6C0E091BC
:100DC0005002F091510280EB8083E0915002F0914B
:100DD000510282E08183E0915002F091510284E15E
:100DE0008283E0915002F091510281E08383E0918F
:100DF0005002F09151028AE08483E0915002F09118
:100E0000510283E18583E0915002F09151021682F4
:100E100020915002309151022A98C901FC019C0195
:100E2000295F3F4F80818EBD0DB407FEFDCF8EB58B
:100E30008193E217F307B1F72A9AE0915002F091FB
:100E4000510280EC8083E0915002F09151022A9887
:100E500080818EBD0DB407FEFDCF57C0E0915002DA
:100E6000F0915102EF01239680EB8083A091500214
:100E7000B091510282E011968C93A0915002B091F2
:100E8000510283E112968C938091150283838091A5
:100E900005038983359680E2DF011D928A95E9F783
:100EA00040910503CF0168E671E050E00E943502F1
:100EB0001BA21AA280911602813011F0823009F42F
:100EC0008CA380915002909151022A989C01F901C3
:100ED000275D3F4F80818EBD0DB407FEFDCF8EB5DF
:100EE0008193E217F307B1F72A9AE0915002F0914B
:100EF000510280EC8083E0915002F09151022A98D7
:100F000080818EBD0DB407FEFDCF8EB580832A9AF9
:100F10000BC0809150029091510262E572E00E94F4
:100F2000700481E080934E0285E080934C02DF9153
:100F3000CF911F910F91089584B18E6284B9249846
:100F400084E085B980E58CBD81E08DBD8DB58EB521
:100F500010924A0210924B0210924C0210924402DC
:100F600010924D0210924E0210924F0285E094E0D2
:100F7000909351028093500280E991E09093530244
:100F8000809352020E9468020E94FB028FEF60E091
:100F90000E942A0380EC61E00E942A0388E691E027
:100FA0000E943E028093050382E791E00E943E0288
:100FB0008093060308950F931F936091C603709169
:100FC000C70361157105F1F06733710518F485E009
:100FD00094E013C00BE314E09B0126533040609172
:100FE000CF037091D003C801A9010E94470260910C
:100FF000C6037091C703C801C6970E94640481E0CC
:101000000E945E041F910F9108950E944F0408955D
:101010000F931F930E9405089093C7038093C60304
:10102000892B81F1009111041091120480E098E065
:101030000E94AB0A0817190769F481E00E94C50AEB
:101040008091C6039091C703892B09F458C00E9470
:10105000801115C0009111041091120486E098E0EF
:101060000E94AB0A0817190709F049C00E94311302
:101070008091C6039091C703892B09F440C00E9458
:10108000DB073DC084E792E00E941809892BB9F183
:1010900084E792E00E94060983ED93E09093D203E7
:1010A0008093D10382E00E94C50A8091C60390918B
:1010B000C703892B21F00E9480110E94DB078091D9
:1010C000C6039091C703892B71F484E892E00E94D3
:1010D0001809892B41F084E892E00E9406090E94D9
:1010E0001A110E94DB078CE792E00E941809892BF5
:1010F00031F08CE792E00E9406090E94ED101F91EA
:101100000F910895CF92DF92EF92FF920F931F936A
:101110000E946D04FC0110810181F280E380D48083
:10112000C58084E792E044EF51E060E070E00E9407
:101130003A098CE792E040E157E260E070E00E94FB
:101140003A0984E892E040E355E760E070E00E94ED
:101150003A090E940E0A10938C0200938D02F092BD
:101160008E02E0928F02D0929002C09291029091F2
:101170000B0280E040910C0250E0482B592B30913B
:10118000090220E080910A0290E0822B932B909339
:10119000010480930204509303044093040490914B
:1011A0000F0280E04091100250E0482B592B309103
:1011B0000D0220E080910E0290E0822B932B909301
:1011C000F9038093FA035093FB034093FC0390913F
:1011D000130280E04091140250E0482B592B3091CB
:1011E000110220E08091120290E0822B932B9093C9
:1011F000FD038093FE035093FF03409300041F916F
:101200000F91FF90EF90DF90CF900895FC018081C7
:101210009181A281B3812481358146815781820FDA
:10122000931FA41FB51F80839183A283B383089566
:101230000F931F938C010E946502E0E0F0E0D8015B
:101240002D913D914D915C911397621B730B840B13
:10125000950B14962D913D914D915C9117976217C6
:1012600073078407950710F0E1E0F0E0CF011F91CC
:101270000F9108950F931F938C01FC0144835583B4
:10128000668377830E946502F8016083718382839D
:1012900093831F910F910895FC015381560F509332
:1012A000CD03272F33274281420F4093CC03A181E6
:1012B000A093CB03E081E093CA03842F90E08217D0
:1012C000930748F48A2F8F5F8093CB03882319F408
:1012D000EF5FE093CA03852F90E070708617970741
:1012E00090F4842F8F5F8093CC03882361F48091E6
:1012F000CB038F5F8093CB03882329F48091CA03AB
:101300008F5F8093CA030895E3E1F4E040E050E08A
:10131000308120E08181B901680F711D460F571F90
:101320004617570710F44F5F5F4F329674E0E6326E
:10133000F70770F384E0E632F80751F4908180E01B
:10134000480F591F4817590718F44F5F5F4F06C0E1
:101350004115510519F42FEF3FEF02C0342F252F0F
:10136000C901089580911604682F70E0645170409F
:101370009091150480E0680F791FAB014A5F5F4FC1
:10138000EFE1F4E0308120E08181D901A80FB11DA7
:101390004A0F5B1F4A175B0710F44F5F5F4F32968F
:1013A000B4E0E632FB0770F384E0E632F80749F474
:1013B000908180E0480F591F4817590710F44F5F7C
:1013C0005F4F6A5D7B4FE7E2F4E00EC0308120E0C2
:1013D0008181D901A80FB11D4A0F5B1F4A175B0716
:1013E00010F44F5F5F4F3296E617F70778F3E61772
:1013F000F70751F4908180E0480F591F48175907AB
:1014000018F44F5F5F4F06C04115510519F42FEFD7
:101410003FEF02C0342F252FC90108951092F80321
:101420001092F7031092EC0381E080939A0280E01F
:1014300094E090939902809398020895DC01409182
:10144000EC03E091D703F091D803209198023091FA
:1014500099022F5F3F4F5DE72030350710F020E005
:1014600030E1922F832F442319F0E817F90789F30D
:10147000209398023093990280E090E0442329F46D
:1014800010929A02E3EDF3E00AC0473011F483EDC5
:1014900093E0FC0181E080939A02309779F182E039
:1014A000818F8091940284878091950285878091B5
:1014B0009602868780919702878789E491E0938BD3
:1014C000828B958B848B81E090E0918B808B138E47
:1014D00081E0828F83E0808F168A80E1878B34835E
:1014E0002583778366838D919C9111979183808367
:1014F00012968D919C91139793838283CF010895C7
:101500009C018091F7039091F803892B39F4109294
:101510009A023093F8032093F703089581E08093B3
:101520009A020895BC018091D1039091D20308964C
:101530000E944C09E091D103F091D2038091CA033B
:1015400080878091CB0381878091CC0382878091B3
:10155000CD0383870895282F892F922F0895AC01FA
:10156000FB011616170684F460939705F09398050F
:101570002091C8033091C9038217930729F0C9014C
:10158000BA01AF010E94470208950F931F93CF93B2
:10159000DF93C091D103D091D2032BE334E0309399
:1015A000D0032093CF033093C9032093C803833023
:1015B00059F4898D8F70833009F004C68889998920
:1015C000892B09F0FFC589C0823009F08AC080915B
:1015D00097028F5F80939702882399F480919602F7
:1015E0008F5F80939602882361F4809195028F5FCC
:1015F00080939502882329F4809194028F5F8093D1
:1016000094021092C7031092C6031092980510928C
:101610009705298D273011F0253041F48A8D8F5F91
:101620008A8F883709F0CEC5198ECCC5222309F4DC
:10163000C9C588899989892B09F44BC08A8D815045
:101640008A8F8F5F09F0BEC53B8D383029F021505D
:10165000223048F4353039F4198E80E88093CE0377
:101660000E94901765C4353010F080E307C083E016
:1016700090E002C0880F991F3A95E2F78A8F8B8D10
:101680008F5F8B8F898D90E08F7090708330910584
:10169000D1F08430910544F48130910509F42EC2D3
:1016A000029709F08FC50CC08630910509F4D3C3A9
:1016B0008830910509F4CFC3049709F083C5CBC3E3
:1016C000109234041EC284E08093CE030E949017CF
:1016D00064C42F70233009F075C588E08093CE0371
:1016E0001BC489010852104080911304853409F00D
:1016F00069C59091150480E020911604AC01420F59
:10170000511D8091C6039091C7038417950708F473
:1017100059C55093C7034093C6038091190490E0C4
:101720008F739070892B09F04DC580911A0488231E
:1017300009F048C5209101043091020480911B02F8
:1017400090911C022817390731F48091030490917D
:101750000404892BA1F08091230490912404821722
:10176000930709F02FC5209125043091260480911C
:101770000304909104042817390709F023C50E9437
:1017800084098F5F9F4F09F01DC580911C0486302E
:10179000D1F1813009F016C580912704883009F015
:1017A00011C5109227048091290490912A04EFEF2B
:1017B000873F9E0710F0099601C0089690932A046F
:1017C0008093290480911F04909120049093240415
:1017D0008093230480912104909122049093260405
:1017E0008093250480910104909102049093200439
:1017F00080931F0480910304909104049093220429
:1018000080932104E3C40E94B2098F5F9F4F09F0C7
:10181000D9C4C3EDD3E0898D882329F1209129040F
:1018200030912A048C819D8128173907E1F4209199
:101830002704309128048E819F812817390799F455
:1018400020911F043091200488819981281739073D
:1018500051F420912104309122048A819B81281720
:10186000390709F467C1A49623E0C33DD20799F272
:1018700090F2809134048F738230F1F480912904C6
:1018800090912A0490939D0280939C0210929A0258
:1018900041E00EC020919C0230919D028091F7039F
:1018A0009091F8032817390709F470C040939A0201
:1018B00080919A02882371F38091340482FD82C45E
:1018C00084E1F80181A388E290E09093C7038093BC
:1018D000C60380E580A390912E0480913204838F0B
:1018E00030912D0480913104828F368F40912C04E9
:1018F00080913004818F458F20912B0420939A0290
:1019000080912F04808F248F9F5F978F992361F49C
:10191000832F8F5F868F882339F4842F8F5F858F85
:10192000882311F42F5F248F2091270430912804FD
:1019300030939D0220939C028091290490912A0467
:10194000F801958B848B378B268B80911F049091A7
:101950002004909324048093230480912104909187
:101960002204909326048093250480910104909191
:1019700002049093200480931F04809103049091AB
:1019800004049093220480932104DEC310929A02EF
:10199000C0E0D0E021E014C08091EC03882319F46A
:1019A000C3EDD3E014C0873049F4209729F090911B
:1019B000ED038A8D891710F4C3EDD3E020939A02CA
:1019C00080919A02882341F3209709F4FBC3D093B6
:1019D000D203C093D10383E08A8F888F1E8A84E06C
:1019E0008F8B1B8E8091290490912A049D838C8378
:1019F00080912704909128049F838E8380911F04F7
:101A000090912004998388838091210490912204ED
:101A10009B838A8381E0898F809194028C87809157
:101A200095028D87809196028E87809197028F878D
:101A300081E090E0998B888B80912E048B87809138
:101A40002D048A8780912C04898780912B048887B4
:101A500081E090E00E94920A8091330490E0807FC0
:101A60009070813591050CF449C010929A0234C0EF
:101A7000F901EB5FFB4F86A980939B028823F1F16C
:101A8000813021F44F5F40939A0226C08230C1F426
:101A900087A98430A9F430AD20E081AD90E0822B9D
:101AA000932B90939D0280939C02F1E08A349F07D0
:101AB00010F089E491E09B8B8A8B9D8B8C8B1EC0F0
:101AC00090919A02E92FF0E0EB5FFB4F87A9882302
:101AD000A9F0890F80939A0240919A02242F30E056
:101AE0008091330482958F7090E00597880F991F3D
:101AF000880F991F281739070CF4BACF80E180931B
:101B000034048091340482608093340482E08093B2
:101B10003B0484E080933C0481E080933D0489E4AD
:101B200080933E048CE290E09093C7038093C603B9
:101B300080E6B7C2D093D203C093D1031092CE03F4
:101B400080913404482F50E082FF03C0198E80E258
:101B500051C28091330482958F70880F880F8093D3
:101B60009A022091C6033091C70324513040281BAC
:101B700031093093C7032093C603898D8F7082305B
:101B800029F44F7350704231510509F1232B39F478
:101B90008091340490E083709070892BC1F0909113
:101BA0002B048885981709F072C290912C048985BE
:101BB000981709F06CC290912D048A85981709F046
:101BC00066C290912E048B85981709F060C28091AF
:101BD000340484FF51C0688979896115710509F45D
:101BE0004BC0CE010C960E944C0920912F0480918D
:101BF000CA03281709F040C0909130048091CB03AC
:101C00009817D1F5909131048091CC039817A1F5E4
:101C1000909132048091CD03981771F52C878091B3
:101C2000CB038D878091CC038E878091CD038F87E6
:101C30008B8D8823D1F42E89988D8A8D981B822FC5
:101C4000869586958695981B392F320F3E8B8F8906
:101C5000282F26952695821B97FD9195890F8F8BAE
:101C6000369536953695830F888F81E08093CE0325
:101C7000888D8A8F198A188A898D282F30E0C901AA
:101C80008F7090708430910509F4B9C18530910549
:101C90005CF48230910591F1833091050CF0B1C074
:101CA000019709F08FC210C08630910509F4E7C191
:101CB000863091050CF4C3C18730910509F4E7C162
:101CC000089709F07FC290C18091CE0380FF7AC24D
:101CD00083E0898F80E48093CE03198A188A20914B
:101CE000C6033091C7032115310509F411C182E4FF
:101CF0008093CE03C9010E94920A0AC18091CE034B
:101D000080FF74C0809134048F73823109F06EC0FB
:101D10008091330490E0807F9070813591050CF4C0
:101D200049C010929A0234C0F901EB5FFB4F86A9BB
:101D300080939B028823F1F1813021F44F5F40931F
:101D40009A0226C08230C1F487A98430A9F430AD4C
:101D500020E081AD90E0822B932B90939D028093A5
:101D60009C0221E08A34920710F089E491E09B8B79
:101D70008A8B9D8B8C8B1EC090919A02E92FF0E08C
:101D8000EB5FFB4F87A98823A9F0890F80939A0204
:101D900040919A02242F30E08091330482958F7015
:101DA00090E00597880F991F880F991F281739070A
:101DB0000CF4BACF83E0898F80912B0488878091BF
:101DC0002C04898780912D048A8780912E048B872B
:101DD00081E090E00E94920A82E48093CE03198A07
:101DE000188A1092C7031092C60392C080E28093B3
:101DF000CE030E949017E091D103F091D203118E8F
:101E00005BCD8091340480FF2AC024FD28C08889DE
:101E10009989892B09F0D6C18091C6039091C70397
:101E200001960E94920A2091CE03822F80618093B6
:101E3000CE038091C6039091C703892B19F02261CC
:101E40002093CE030E94901781E090E0998B888BBD
:101E500088E0898F1B8E81E1809334041BC185FF4C
:101E600021C060913904362F20E040913A0450E0BF
:101E7000242B352B8091CF039091D003820F931F99
:101E80009093D0038093CF03962F80E0842B952BE3
:101E90002091C6033091C703281B390B3093C70329
:101EA0002093C6032091C6033091C7032115310545
:101EB00059F0898D84FD08C08091CE0382608093A3
:101EC000CE03C9010E94920A9091350480E02091CE
:101ED0003604820F911D90939D0280939C022C8961
:101EE0003D892817390710F0892B21F430939D0282
:101EF00020939C0280919C0290919D029B8B8A8BE7
:101F00008091CE0390E083709070892B09F45AC1C0
:101F100010929805109297050E9490178091CE0319
:101F2000282F85FF07C01092980510929705198EEB
:101F300084E192CF84FF0AC0109298051092970511
:101F400081E090E0998B888B84E083CF8091970526
:101F500090919805892B01F120FF02C0198A188AF7
:101F6000888999890097A1F42A893B8980919705EE
:101F7000909198052817390720F4309398052093FD
:101F800097058091970590919805998B888B04C04F
:101F900090939805809397051B8E8091C80390912C
:101FA000C9039093D0038093CF03809197059091BC
:101FB0009805892B59F088899989009739F0889676
:101FC0009093C7038093C60388E10BC08091CE0332
:101FD00081FFF8C088E290E09093C7038093C60326
:101FE00080E1809334045CC08091CE0380FFEAC01E
:101FF000198E80E18093CE030E949017E3C08091F8
:10200000C6039091C703009711F00E94920A809135
:1020100034049091CE0380FF0BC090FF06C087E090
:10202000898F1A8E198A188A19C086E0898F16C07E
:1020300090FF1EC085E0898F198A188AC3C08091DD
:10204000C6039091C703009711F00E94920A8091F5
:10205000340480FF0DC087E0898F1A8E81E090E004
:102060000E94920A80E18093CE030E9490170FC0D5
:102070008091C6039091C703892B49F4A3C0809136
:10208000CE0380FF9FC087E0898F1A8E9BC080E1BE
:10209000F80181A388E290E09093C7038093C60380
:1020A00080E580933304888580932F04898580930D
:1020B00030048A85809331048B85809332048C852B
:1020C00080932B048D8580932C048E8580932D0422
:1020D0008F8580932E0486E080931C048C819D81E3
:1020E00090932804809327048E819F8190932A04E3
:1020F000809329048091010490910204909320041C
:1021000080931F048091030490910404909322040F
:1021100080932104888199819093240480932304DF
:102120008A819B819093260480932504898D84FF66
:1021300005C0109236041092350406C081E08093E9
:10214000350489E48093360480E480931B048091F5
:10215000C703809315048091C603809316041092E0
:102160003A041092390410923804109237040E94F5
:10217000B20980959095909338048093370485E454
:10218000809313041092140410921A0410921904EC
:102190008091920290919302019690939302809382
:1021A0009202909317048093180410921E041092C8
:1021B0001D040E9484098095909590931E0480933D
:1021C0001D0404C01092C7031092C6031092CE03E0
:1021D000DF91CF911F910F9108958091FC028F5F45
:1021E0008093FC021092FA024BE01FC0249FF00182
:1021F0001124E256FD4F8281938120813181822B0F
:10220000932B892B69F08091FC0290E02285821B40
:1022100091098837910524F010821182128213826D
:102220008091FA028F5F8093FA022091FA0228309F
:10223000E8F2089585E094E06FEF70E046E050E04A
:102240000E945002A5E2B4E0ECE8F2E086E00190E2
:102250000D928150E1F7ABE0B4E0ECE8F2E086E00B
:1022600001900D928150E1F7ABE1B4E0ECE8F2E0CF
:1022700086E001900D928150E1F7209101043091A8
:10228000020430932C0420932B048091030490913A
:10229000040490932E0480932D0430932204209301
:1022A0002104909324048093230480E092E090938F
:1022B0001A048093190480E091E0909314048093B1
:1022C000130488E090E0909316048093150486E050
:1022D0008093170484E08093180488E096E090933C
:1022E0001204809311048BE394E09093D0038093C5
:1022F000CF038AE290E09093C7038093C6030895CA
:10230000409123045091240480911F029091200257
:102310004817590789F480912504909126048F5F0E
:102320009F4F51F4A5E0B4E0E3E2F2E086E00190D3
:102330000D928150E1F7CFC0809101049091020489
:10234000842795272091FD033091FE038223932358
:10235000892B91F4609125047091260480910304E7
:1023600090910404862797272091FF033091000461
:1023700082239323892B89F08091F9039091FA03AA
:102380009093F7028093F6028091FB039091FC03F7
:102390009093F9028093F80208C05093F70240939B
:1023A000F6027093F9026093F8021092FA026091BB
:1023B000F6027091F7024091F8025091F902E0E0C4
:1023C000F0E020E03BE013C0239FF0011124E2562F
:1023D000FD4F808191816817790741F48281938153
:1023E0004817590719F42093FA026DC02F5F28305F
:1023F00058F32093FA02283009F065C085E094E094
:102400006FEF70E046E050E00E945002E5E2F4E039
:1024100086E0DF011D928A95E9F77A97ACE8B2E091
:1024200086E00D9001928150E1F7ABE1B4E0ECE879
:10243000F2E086E001900D928150E1F78091F60282
:102440009091F70290932C0480932B048091F802D2
:102450009091F90290932E0480932D0480910104B1
:1024600090910204909322048093210480910304AC
:1024700090910404909324048093230480E091E0DD
:1024800090931A0480931904909314048093130476
:1024900088E090E0909316048093150486E0809382
:1024A000170484E08093180488E096E09093120467
:1024B000809311048BE394E09093D0038093CF0337
:1024C0008AE290E01CC0A5E0B4E0349686E001907A
:1024D0000D928150E1F7ABE0B4E0ECE8F2E086E089
:1024E00001900D928150E1F788E090E09093120402
:1024F000809311048091C6039091C7030E96909328
:10250000C7038093C6030895DF92EF92FF920F9363
:102510001F93CF93DF93DC01062FD72E1092FA0280
:10252000E0E0F0E060E01BE02BC0619FF0011124CF
:10253000E256FD4F408151814115510501F1228143
:10254000338121153105D9F08D919C911197841714
:102550009507A9F412968D919C9113978217930772
:1025600071F46093FA02EF012496802F9D2D9C0157
:10257000D90186E00D9009928150E1F767C06F5F45
:10258000683098F21092FA0220E03BE011C0239FDD
:10259000F0011124E256FD4F80819181892B39F49D
:1025A00082819381892B19F42093FA023CC02F5F1A
:1025B000283068F32093FA022830A9F51092FD0222
:1025C0001092FB021091FC02C12FD0E060E070E09D
:1025D00040E08BE0E82EF12C18C0842F90E08E9D17
:1025E000F0018F9DF00D9E9DF00D1124E256FD4FE0
:1025F00052859E01251B3109872F90E08217930792
:102600001CF4712F751B642F4F5F483030F36093BB
:10261000FB027093FD026093FA028BE0689FF00169
:102620001124E256FD4F8D919D910D90BC91A02DEE
:10263000EF0189939993A993B993202F3D2DC90157
:10264000DC0186E00D9009928150E1F78091FC0257
:102650008287DF91CF911F910F91FF90EF90DF90D4
:102660000895CF93DF938091C6039091C7038A9713
:1026700028F41092C7031092C603A6C01092C70395
:102680001092C603C5E0D4E08091190490911A0419
:1026900021E08030920729F08050924009F094C0E8
:1026A00076C020912B0430912C04809101049091EC
:1026B00002042817390709F087C020912D043091B2
:1026C0002E0480910304909104042817390709F01F
:1026D0007BC0CE014C96BE016A5E7F4F0E94841281
:1026E00080E092E090931A0480931904DE019096A2
:1026F000FE01769686E001900D928150E1F7ABE104
:10270000B4E0ECE8F2E086E001900D928150E1F750
:10271000ABE0B4E0ECE8F2E086E001900D9281508D
:10272000E1F7E5E0F4E0DF01909686E00D9001929C
:102730008150E1F7809121049091220490932C0420
:1027400080932B04809123049091240490932E0471
:1027500080932D04809101049091020490932204AF
:1027600080932104809103049091040490932404A5
:102770008093230488E096E09093120480931104E0
:102780008AE290E09093C7038093C6031DC0209116
:102790002B0430912C04809101049091020428179D
:1027A000390791F420912D0430912E048091030477
:1027B000909104042817390739F4CE014C96BE01D4
:1027C0006A5E7F4F0E948412DF91CF910895FC01D1
:1027D0008685882311F4758764870895FC018685B2
:1027E000882329F483E093E0BF010E9455140895E3
:1027F000CF92DF92EF92FF920F931F937C01FB0128
:10280000CA016901418150E0308120E0422B532B05
:10281000D7015C9311964C931197528140E023812C
:1028200030E0242B352B12963C93129713962C9361
:102830000E94AB0AF70195838483D782C6821187F1
:10284000008713861286158614861686108A1786C8
:10285000128A118A148A138A1F910F91FF90EF90A8
:10286000DF90CF900895609300030895E091D10325
:10287000F091D2033097C1F080A191A1248D358DC4
:10288000AC01421B530B019691A380A357FD0CC0D2
:1028900082899389481759073CF4E091CF03F0915E
:1028A000D003E40FF51F60830895DB01E09101037D
:1028B000F0910203309729F47093020360930103AF
:1028C00009C0CF010388F489E02D3097D1F7FC01CE
:1028D000B48BA38B81E01E968C9308958DE292E0D9
:1028E000909304038093030308950E9408080E94B4
:1028F000D104E0910103F09102033097C1F06481AB
:102900007581CF010E941E0ADC01009781F0E091E1
:102910000103F09102039396FC93EE9392978389BF
:1029200094899093020380930103148A138A089573
:10293000EF92FF920F931F93CF93DF93EC018B01E4
:10294000E091D103F091D20382A193A1892B81F56B
:10295000CE0160E071E044E050E00E945702009731
:1029600039F524969E01200F311FFE011DC0808184
:102970008032D1F411928F01E090D103F090D20314
:102980000C1B1D0BC8010E943301F70182A393A306
:10299000E091D103F091D20382A193A1BE01A801DD
:1029A0000E94470280E008C03196E217F307F8F270
:1029B00080E0012B09F481E0DF91CF911F910F910D
:1029C000FF90EF900895EF92FF920F931F93CF9394
:1029D000DF937B01E80EF91EEC018C010F5F1F4FA6
:1029E0009C011BC088818A30A9F4BE01621B730B55
:1029F0008A9121968D3011F461507040F901E60FF3
:102A0000F71F1082C9010E949814882311F081E0F9
:102A100008C0980121960F5F1F4FCE15DF0510F3F8
:102A200080E0DF91CF911F910F91FF90EF9008957B
:102A30000F931F93CF93DF938C01EB01FB01649104
:102A400006C0C8010E94C41B2196FE016491662342
:102A5000C1F7DF91CF911F910F9108950F931F93AD
:102A60008C010E941815C8010E94D41B1F910F9160
:102A70000895682F809108028F3F11F00E94BD19C0
:102A80000895682F809107028F3F11F00E94BD19B1
:102A900008950F931F93CF93DF930091D10310916B
:102AA000D203F80160A171A1848D958D681B790B0B
:102AB00077FF02C060E070E0F80182899389EB0142
:102AC000861797070CF4EC0180910003882389F0A6
:102AD00083EB93E066E071E00E94CC1B83EB93E014
:102AE000BE010E94D51C83EB93E06AE071E00E9476
:102AF000EB1B8091CF039091D003BE010E94AF0ADF
:102B0000F801D78FC68F81E00E944115DF91CF91E8
:102B10001F910F910895CF92DF92EF92FF920F9342
:102B20001F93CF93DF93E090D103F090D203D701AE
:102B300092960D911C91939791961C921E9290974C
:102B4000DD24F80187859089892B29F0DD24D39431
:102B50006DE071E002C063E171E083E093E00E9408
:102B60001815D80118966D917C91199783E093E020
:102B70000E94CC1B83E093E06FE870E00E942E156A
:102B800083E093E068E171E00E941815F801668126
:102B9000778183E093E00E94EB1BD8011A968D9118
:102BA0009C911B97892B69F083E093E069E970E0C1
:102BB0000E941815F8016285738583E093E00E94F6
:102BC000EB1B83E093E064EC70E00E942E15DD20A7
:102BD000E9F183E093E06DED70E00E942E1583E053
:102BE00093E06FEA70E00E942E15D7019096CD9188
:102BF000DC91919783E093E00E94D41BF701C0A081
:102C0000D1A0D80151966D917C91529761157105B3
:102C100021F083E093E00E94CC1BD8011F96ED9138
:102C2000FC9150970995F70100A111A12697D1A316
:102C3000C0A3B8016C197D0983E093E00E94D51C04
:102C4000D70191961C930E93909704C083E093E074
:102C50000E94D41B0E944915DF91CF911F910F91C3
:102C6000FF90EF90DF90CF9008950F931F93CF9335
:102C7000DF93C091D103D091D2030AA11BA180910F
:102C8000CE0386FF17C080910003882379F083EB81
:102C900093E061E171E00E94CC1BD80116966D9122
:102CA0007C91179783EB93E00E94EB1B1D8E1C8E8B
:102CB0000E948B158091CE0380FF11C08C8D9D8D5D
:102CC0002E8D3F8D820F931F9D8F8C8F1F8E1E8E9A
:102CD00028A139A12817390711F00E948B1580917E
:102CE000CE0382FF02C00E948B158091CE0381FF2C
:102CF00035C081E00E943915809100038823D9F006
:102D000083EB93E06FE171E00E94CC1B6091C603FE
:102D10007091C70383EB93E00E949D1C83EB93E0CB
:102D200063E271E00E94CC1BF8016681778183EB3E
:102D300093E00E94EB1BD8011C96ED91FC911D972E
:102D4000309761F06091C6037091C70361157105FA
:102D500029F08091CF039091D00309958091CE0303
:102D600085FD04C087FD02C084FF26C00115110542
:102D700019F180910003882369F083EB93E060E30D
:102D800071E00E94CC1BF8016681778183EB93E0B0
:102D90000E94EB1BD8011C96ED91FC911D9730977A
:102DA00039F08091CF039091D00360E070E00995F5
:102DB0001BA21AA2F8011686DF91CF911F910F91E5
:102DC0000895E091D103F091D20311A210A283E003
:102DD00093E068E670E00E942E1583E093E00E9485
:102DE000D41BE091D103F091D2032091FE023091E7
:102DF000FF0282A193A1F9010995882381F4E09152
:102E0000D103F091D20311A210A283E093E068E70E
:102E100070E00E942E1583E093E00E94D41B0E9474
:102E200049150895CF93DF93C091D103D091D20378
:102E30008091CE0386FF0EC080910003882331F07D
:102E400083EB93E067E471E00E94EB1B1D8E1C8E08
:102E50001BA21AA28091CE0381FF25C081E00E94AF
:102E600039156091C6037091C7038091CF0390918B
:102E7000D0030E94E3148823B1F08AA19BA1892B7F
:102E800091F080910003882361F083EB93E068E583
:102E900071E00E94CC1B6AA17BA183EB93E00E94AE
:102EA000EB1B0E94E1168091CE0380FF15C08C8D34
:102EB0009D8D2E8D3F8D820F931F9D8F8C8F1F8E2A
:102EC0001E8E28A139A12817390721F480E18093AB
:102ED000CE0302C00E94E1168091CE0382FF02C0A1
:102EE0000E94E1169091CE03892F807311F497FF11
:102EF00014C08AA19BA1892B81F0809100038823B3
:102F000031F083EB93E060E771E00E94EB1B8AA154
:102F10009BA10E94DD011BA21AA2DF91CF9108950F
:102F200080E00E94411580E00E943915E091D103B4
:102F3000F091D203309751F0848195818050904573
:102F400019F40E94121708950E9435160895CF9320
:102F5000DF93EB010E949C0780E060E673E040E0B5
:102F600050E00E94861802C00E94D1040E946104B1
:102F70008130D1F70E948208D093FF02C093FE02F5
:102F8000CD2B21F080E090E50E94800ADF91CF9167
:102F900008950F931F9387E093E067E172E040E5A7
:102FA00050E029E831E00CE911E00E94F8131F918C
:102FB0000F9108958091200390912103892B61F551
:102FC00083EB93E062EC71E00E94EB1B87E093E0FF
:102FD0000E94EE130E944B19AB01BC0148535045AF
:102FE0006F4F7F4F40931C0350931D0360931E034C
:102FF00070931F0383EB93E00E94CA1C0E944B193D
:10300000AB01BC0183EB93E00E94921C81E090E055
:1030100090932103809320030E944B1920911C035D
:1030200030911D0340911E0350911F0362177307D7
:103030008407950720F18091200390912103019747
:10304000F1F483EB93E068EE71E00E94EB1B80915A
:103050001C0390911D03A0911E03B0911F03885380
:103060009045AF4FBF4F80931C0390931D03A093D7
:103070001E03B0931F0387E093E00E94EE1383E0EA
:1030800093E00E94751468EE73E080E090E00E9487
:10309000591908950F931F9303E013E0C80160E0EE
:1030A00070E00E94A71783EB93E040E051EE60E0F0
:1030B00070E00E94471AC80160E00E94331487E064
:1030C00093E06FE678E10E94E7131F910F91089556
:1030D0000E9483190E944A180E94DA17FDCF0F93AD
:1030E0001F93CF93DF938C01EB0108C0F80161912E
:1030F0008F0183EB93E00E94C41B21971C161D06D1
:10310000ACF3DF91CF911F910F910895823000F5BC
:10311000E82FF0E0EE0FFF1FEE5DFC4F7183608340
:10312000882319F08130A1F408C0809169008C7F58
:10313000842B80936900E89A089580916900440F78
:10314000551F440F551F837F842B80936900E99A94
:1031500008951F920F920FB60F9211242F933F9351
:103160004F935F936F937F938F939F93AF93BF938F
:10317000EF93FF938091220390912303892B29F0F1
:10318000E0912203F09123030995FF91EF91BF9104
:10319000AF919F918F917F916F915F914F913F91EF
:1031A0002F910F900FBE0F901F9018951F920F92A6
:1031B0000FB60F9211242F933F934F935F936F930A
:1031C0007F938F939F93AF93BF93EF93FF938091E0
:1031D000240390912503892B29F0E0912403F09199
:1031E00025030995FF91EF91BF91AF919F918F9129
:1031F0007F916F915F914F913F912F910F900FBEF3
:103200000F901F9018951F920F920FB60F921124D6
:103210002F933F938F939F93AF93BF9380912A03F4
:1032200090912B03A0912C03B0912D0330912E038C
:103230000196A11DB11D232F2D5F2D3720F02D5795
:103240000196A11DB11D20932E0380932A03909314
:103250002B03A0932C03B0932D0380912603909110
:103260002703A0912803B09129030196A11DB11D48
:103270008093260390932703A0932803B0932903F8
:10328000BF91AF919F918F913F912F910F900FBE62
:103290000F901F9018958FB7F89420912A033091C2
:1032A0002B0340912C0350912D038FBFB901CA010C
:1032B0000895EF92FF920F931F937B018C018FB7BC
:1032C000F89440912A0350912B0360912C03709144
:1032D0002D038FBF2FB7F89480912A0390912B0371
:1032E000A0912C03B0912D032FBF841B950BA60B2F
:1032F000B70BE816F9060A071B0760F71F910F9135
:10330000FF90EF900895789484B5826084BD84B571
:10331000816084BD85B5826085BD85B5816085BDD0
:10332000EEE6F0E0808181608083E1E8F0E080817A
:1033300082608083808181608083E0E8F0E080812A
:1033400081608083E1EBF0E0808184608083E0EB4A
:10335000F0E0808181608083EAE7F0E08081846032
:10336000808380818260808380818160808380818E
:10337000806880831092C1000895482F50E0CA01F0
:1033800089509E4FFC012491CA018D519E4FFC0132
:10339000949141535E4FFA0134913323D1F12223AA
:1033A00031F1233021F4809180008F7705C02430E3
:1033B00031F4809180008F7D8093800018C021308F
:1033C00019F484B58F7704C0223021F484B58F7D41
:1033D00084BD0DC0263021F48091B0008F7705C0E8
:1033E000273029F48091B0008F7D8093B000E32FC7
:1033F000F0E0EE0FFF1FE554FE4FA591B491662358
:1034000029F48C91909589238C9308958C91892B24
:103410008C9308951F920F920FB60F9211242F9341
:103420003F934F935F936F937F938F939F93AF934C
:10343000BF93EF93FF934091C600E091AF03F091EB
:10344000B003CF01019660E870E00E94FC1C9C0173
:103450008091B1039091B2032817390739F0E15DEB
:10346000FC4F40833093B0032093AF03FF91EF9163
:10347000BF91AF919F918F917F916F915F914F918C
:103480003F912F910F900FBE0F901F9018955F9254
:103490006F927F928F929F92AF92BF92CF92DF9264
:1034A000EF92FF920F931F93CF93DF93EC013A01BA
:1034B0004B01413482E458078FE0680780E07807C9
:1034C0000CF07FC060E874E88EE190E0A401930105
:1034D0000E94311D2150304040405040CA01B90186
:1034E00022E030E040E050E00E94311D59016A01C5
:1034F000A6019501209530954095509594E0220FB6
:10350000331F441F551F9A95D1F760E074E284EF92
:1035100090E00E94311DCA01B9012FEF30E040E078
:1035200050E00E94DD1CA40193010E94311DC901DD
:1035300081509F4F181619061CF4522E5A9403C03E
:1035400055245394521A60E079E08DE390E0A40191
:1035500093010E94311D2150304040405040CA012B
:10356000B90122E030E040E050E00E94311D20959A
:1035700030954095509583E0220F331F441F551F0F
:103580008A95D1F760E074E284EF90E00E94311DEB
:10359000CA01B9012FEF30E040E050E00E94DD1C8D
:1035A000A40193010E94311DC90181509F4F18163B
:1035B00019061CF4822F815002C081E0821B851500
:1035C00000F5E885F98581E090E00A8802C0880F5F
:1035D000991F0A94E2F7808360E079E08DE390E040
:1035E000A40193010E94311D2150304040405040C1
:1035F000CA01B90122E030E040E050E00E94311DF4
:1036000004C0E885F98510829501EC81FD81308345
:10361000EE81FF812083EA85FB85208141E050E037
:10362000CA010E8402C0880F991F0A94E2F7282B62
:103630002083EA85FB852081CA010F8402C0880FA0
:10364000991F0A94E2F7282B2083EA85FB85808165
:10365000088802C0440F551F0A94E2F7842B808328
:10366000DF91CF911F910F91FF90EF90DF90CF905E
:10367000BF90AF909F908F907F906F905F900895D4
:10368000FC01A085B18521898C9190E0022E02C0B9
:10369000959587950A94E2F780FFF6CF0484F58527
:1036A000E02D6083089587E392E09093B4038093C4
:1036B000B3038FE293E09093B6038093B50385EC58
:1036C00090E09093B8038093B70384EC90E09093DC
:1036D000BA038093B90380EC90E09093BC0380938D
:1036E000BB0381EC90E09093BE038093BD0386EC16
:1036F00090E09093C0038093BF0384E08093C10364
:1037000083E08093C20387E08093C30385E08093C6
:10371000C40381E08093C50308950F931F93CF9353
:10372000DF938C01EB0109C02196D801ED91FC914A
:103730000190F081E02DC801099568816623A1F709
:10374000DF91CF911F910F910895EF92FF920F9308
:103750001F93CF93DF938C017B01EA010CC0D7014B
:103760006D917D01D801ED91FC910190F081E02DEA
:10377000C80109952197209791F7DF91CF911F916B
:103780000F91FF90EF900895DC01ED91FC91019075
:10379000F081E02D09950895DC01ED91FC91028006
:1037A000F381E02D099508950F931F938C01DC019F
:1037B000ED91FC910190F081E02D6DE00995D8012B
:1037C000ED91FC910190F081E02DC8016AE009952E
:1037D0001F910F9108950F931F938C010E94CC1B92
:1037E000C8010E94D41B1F910F9108952F923F9200
:1037F0004F925F926F927F928F929F92AF92BF9201
:10380000CF92DF92EF92FF920F931F93DF93CF93AC
:10381000CDB7DEB7A0970FB6F894DEBF0FBECDBF11
:103820001C016A017B01411551056105710549F4CF
:10383000DC01ED91FC910190F081E02D60E30995B0
:1038400054C0882499245401422E55246624772498
:1038500001E010E00C0F1D1F080D191DC701B60176
:10386000A30192010E940F1DF80160830894811C3E
:10387000911CA11CB11CC701B601A30192010E94B9
:103880000F1DC901DA016C017D01C114D104E104ED
:10389000F104F1F681E0E82EF12CEC0EFD1EE80CAF
:1038A000F91C3E010894611C711CD501C4010197EB
:1038B000A109B1096C01C818D90814C0F601EE0DB0
:1038C000FF1D60816A3010F4605D01C0695CD10148
:1038D000ED91FC910190F081E02DC10109950894D2
:1038E000E108F1086E147F0449F7A0960FB6F8942A
:1038F000DEBF0FBECDBFCF91DF911F910F91FF9023
:10390000EF90DF90CF90BF90AF909F908F907F907F
:103910006F905F904F903F902F9008952AE00E9403
:10392000F61B08950F931F938C010E948E1CC801F3
:103930000E94D41B1F910F910895AB0160E070E0CD
:103940000E948E1C0895EF92FF920F931F93CF93C6
:10395000DF93EC017A018B0177FF0FC0E881F981D9
:103960000190F081E02D6DE2099510950095F0949D
:10397000E094E11CF11C011D111DCE01B801A7014D
:103980002AE00E94F61BDF91CF911F910F91FF90CB
:10399000EF9008950F931F938C010E94A31CC80100
:1039A0000E94D41B1F910F910895AB01662757FD0C
:1039B0006095762F0E94A31C0895629FD001739F8B
:1039C000F001829FE00DF11D649FE00DF11D929FBB
:1039D000F00D839FF00D749FF00D659FF00D9927FA
:1039E000729FB00DE11DF91F639FB00DE11DF91F1E
:1039F000BD01CF011124089597FB092E07260AD097
:103A000077FD04D049D006D000201AF47095619556
:103A10007F4F0895F6F7909581959F4F0895A1E205
:103A20001A2EAA1BBB1BFD010DC0AA1FBB1FEE1F38
:103A3000FF1FA217B307E407F50720F0A21BB30B83
:103A4000E40BF50B661F771F881F991F1A9469F7FF
:103A500060957095809590959B01AC01BD01CF015B
:103A6000089597FB092E05260ED057FD04D0D7DF09
:103A70000AD0001C38F450954095309521953F4F61
:103A80004F4F5F4F0895F6F790958095709561952B
:103A90007F4F8F4F9F4F0895AA1BBB1B51E107C05B
:103AA000AA1FBB1FA617B70710F0A61BB70B881FCE
:103AB000991F5A95A9F780959095BC01CD0108955D
:103AC000EE0FFF1F0590F491E02D0994F894FFCFBD
:103AD000474554202F0054582000206279746573A4
:103AE00000436F6E6E656374656420746F200052CE
:103AF0005820002062797465732066726F6D200013
:103B0000456E64656420636F6E6E656374696F6E85
:103B10002077697468200053657276657220636F40
:103B20006E6E65637465640050726F63657373696C
:103B30006E67207265717565737420666F72200000
:103B400053657276657220636F6E6E656374696F1C
:103B50006E20636C6F736564007A2D637562652EE9
:103B600061707073706F742E636F6D002F67657472
:103B7000636F6C6F723F7569643D30303A30303A34
:103B800030303A30303A30303A3031267077643D58
:103B9000610052756E6E696E67207468652071757C
:103BA00065727920666F7220746865206669727329
:103BB000742074696D652E0052756E6E696E672093
:103BC00074686520717565727920616761696E2E10
:103BD0000020009D050000FFFFC0A80164C0A801EF
:103BE00001FFFFFF0003014A7D358D00000000FF4B
:103BF000FFFFFFFFFFFFFFFFFF0000000036148DF7
:0E3C00001BA51B00000000401B8D1BA51B0018
:00000001FF
