:100000000C9409010C9485180C94B2180C943101CD
:100010000C9431010C9431010C9431010C94310198
:100020000C9431010C9431010C9431010C94310188
:100030000C9431010C9431010C9431010C94310178
:100040000C94DF180C9431010C94E6190C943101D6
:100050000C9431010C9431010C9431010C94310158
:100060000C9431010C943101485454502F312E30EE
:1000700020323030204F4B00485454502F312E3016
:1000800020343034204E6F7420466F756E6400202B
:10009000485454502F312E3000417574686F726986
:1000A0007A6174696F6E3A2042617369632000431C
:1000B0006F6E74656E742D4C656E6774683A20209F
:1000C00020202000557365722D4167656E743A20BB
:1000D00057695365727665722F312E3100436F6E0A
:1000E00074656E742D547970653A206170706C6916
:1000F000636174696F6E2F782D7777772D666F72D5
:100100006D2D75726C656E636F64656400504F533E
:100110005420004745542000486F73743A20007300
:1001200074617475733D00414243444546474849F4
:100130004A4B4C4D4E4F50515253545556575859A7
:100140005A6162636465666768696A6B6C6D6E6F3D
:10015000707172737475767778797A30313233349E
:1001600035363738392B2F00536D656C6C79436108
:100170007400616263646531323334350001020317
:100180000405060708090A0B0C0D0000000000001A
:10019000000000000000000000000000000000005F
:1001A000000000000000000000000000000000004F
:1001B0000000000000240027002A000000000025A5
:1001C0000028002B00000000002300260029000466
:1001D00004040404040404020202020202030303EE
:1001E00003030301020408102040800102040810E8
:1001F0002001020408102000000007000201000096
:100200000304060000000000000000006E14C9177F
:100210002F1B11241FBECFEFD8E0DEBFCDBF12E0F1
:10022000A0E0B1E0E8E8FAE302C005900D92A23048
:10023000B107D9F715E0A2E0B2E001C01D92AF35D9
:10024000B107E1F712E0C2E1D2E004C02297FE015B
:100250000E943E1DCC30D107C9F70E9444180C946F
:10026000421D0C940000CF93DF93BC0182309105B6
:1002700010F462E070E0A0915D05B0915E05ED01C3
:10028000E0E0F0E040E050E021C0888199818617ED
:10029000970769F48A819B81309719F09383828351
:1002A00004C090935E0580935D05FE0134C068171D
:1002B000790738F44115510519F08417950708F4AA
:1002C000AC01FE018A819B819C01E9012097E9F63E
:1002D00041155105A9F1CA01861B970B049708F433
:1002E000BA01E0E0F0E02AC08D919C91119784174B
:1002F0009507F9F46417750781F412968D919C9116
:100300001397309719F09383828304C090935E050E
:1003100080935D05FD0132964CC0CA01861B970B88
:10032000FD01E80FF91F6193719302978D939C93E0
:1003300040C0FD01828193819C01D9011097A1F6F3
:1003400080915B0590915C05892B41F48091C801F7
:100350009091C90190935C0580935B054091CA011F
:100360005091CB014115510541F44DB75EB78091D5
:10037000C6019091C701481B590B20915B05309134
:100380005C05CA01821B930B8617970780F0AB01AF
:100390004E5F5F4F8417950750F0420F531F5093E5
:1003A0005C0540935B05F9016193719302C0E0E045
:1003B000F0E0CF01DF91CF910895CF93DF930097C5
:1003C00009F450C0EC0122971B821A82A0915D05AE
:1003D000B0915E05109709F140E050E0AC17BD0701
:1003E00008F1BB83AA83FE0121913191E20FF31F33
:1003F000AE17BF0779F48D919C911197280F391F83
:100400002E5F3F4F3983288312968D919C911397CD
:100410009B838A834115510571F4D0935E05C09387
:100420005D0520C012968D919C911397AD010097A8
:1004300011F0DC01D3CFFA01D383C2832191319132
:10044000E20FF31FCE17DF0769F488819981280F27
:10045000391F2E5F3F4FFA01318320838A819B81B0
:1004600093838283DF91CF910895FB01DC0102C069
:1004700005900D9241505040D8F70895FC01059029
:100480000020E9F7809590958E0F9F1F0895FB013E
:10049000DC0102C001900D9241505040D8F7089500
:1004A000DC0101C06D9341505040E0F70895FB011D
:1004B000DC014150504030F08D910190801919F4C9
:1004C0000020B9F7881B990B08950E9427190895F9
:1004D00090E05EE34EE23FE32FEF5093090210926B
:1004E0000A0240930B022A98A9E0B2E0FD01808144
:1004F0008EBD0DB407FEFDCF8EB5819382E0EC304A
:10050000F807A9F72A9A30930902992311F08FE08E
:1005100001C080E880930A0220930B022A988C91F4
:100520008EBD0DB407FEFDCF8EB58D9382E0AC304D
:10053000B807A9F72A9A913011F091E0CECF8EE357
:100540008093090210920A028AE280930B022A9891
:1005500020E030E0F901E75FFD4F80818EBD0DB4F2
:1005600007FEFDCF8EB580832F5F3F4F23303105CF
:1005700089F72A9A9FE79093090210920A02109233
:100580000B022A9820E030E0F901E75FFD4F8081FF
:100590008EBD0DB407FEFDCF8EB580832F5F3F4F1C
:1005A0002330310589F72A9A80910A0284FFE3CF2C
:1005B0009FE69093090210920A0210920B022A9869
:1005C00020E030E0F901E75FFD4F80818EBD0DB482
:1005D00007FEFDCF8EB580832F5F3F4F233031055F
:1005E00089F72A9A80910A02882321F480910B02CC
:1005F0008823F9F208958EE68093090210920A0288
:1006000010920B022A98A9E0B2E0FD0180818EBD14
:100610000DB407FEFDCF8EB5819382E0EC30F80774
:10062000A9F72A9A8DE2809309028FEF80930A023C
:1006300080930B02108211822A988C918EBD0DB48A
:1006400007FEFDCF8EB58D9382E0AE30B807A9F7D7
:100650002A9A0895282F82E48093090210920A02B0
:100660002A98A9E0B2E0FD0180818EBD0DB407FE9D
:10067000FDCF8EB5819382E0EB30F807A9F72A9A77
:1006800081E08093090230910A02662311F0922FD3
:1006900001C090E0822F80958323982B90930B02CA
:1006A00020930A022A988C918EBD0DB407FEFDCFCF
:1006B0008EB58D9382E0AC30B807A9F72A9A0895D9
:1006C000E89881E080930E02089581E48093090206
:1006D00010920A0210920B022A98E9E0F2E080815F
:1006E0008EBD0DB407FEFDCF8EB5819382E0EC3058
:1006F000F807A9F72A9A21E090910B0280910A024B
:10070000982397FF15C02093090280E880930A027E
:100710002A98339780818EBD0DB407FEFDCF8EB52C
:10072000819382E0EB30F807A9F72A9A85E316C097
:1007300096FF5FC02093090280E480930A022A9802
:10074000339780818EBD0DB407FEFDCF8EB58193AA
:1007500082E0EB30F807A9F72A9A83E3806480935C
:10076000090210920A0210920B022A98E9E0F2E0C4
:1007700080818EBD0DB407FEFDCF8EB5819382E0E2
:10078000EC30F807A9F72A9A90910A0280E02091AC
:100790000B0230E0282B392B3F70A0911402B0914E
:1007A000150280E88C932F5F3F4F2A9840E050E07D
:1007B000FD01E40FF51F80818EBD0DB407FEFDCF56
:1007C0008EB580834F5F5F4F4217530788F32A9A95
:1007D00080ED809309022A98809109028EBD0DB4A4
:1007E00007FEFDCF8EB5809309022A9A81E080939F
:1007F0000F0210920E02E89A0895DC0180EA8093BD
:10080000090281E080930A0280930B0210920C028D
:1008100010920D022A98E9E0F2E080818EBD0DB4BD
:1008200007FEFDCF8EB5819382E0EE30F807A9F781
:100830008AEA16968C93169717968C93179783E0EF
:1008400018968C9318971B961C921B971A961C92BD
:100850001A9719961C9219972A9820E030E00CC03C
:10086000FD01E20FF31F80818EBD0DB407FEFDCFA9
:100870008EB580832F5F3F4F2617370788F32A9A5C
:1008800080EC809309022A98809109028EBD0DB4F4
:1008900007FEFDCF8EB5809309022A9A08958091B4
:1008A0001202882319F420E030E006C010921202F0
:1008B0002091160230911702C90108958093110208
:1008C0000895809108020895909315028093140270
:1008D0007093170260931602089582E092E00895E3
:1008E000CF93DF93EB01E0911402F091150295890B
:1008F000868988839983DF01159686E00D900192A1
:100900008150E1F78091140290911502DC01169656
:10091000FC013B9686E001900D928150E1F7209119
:10092000140230911502B901645F7F4F235E3F4F7F
:1009300048815981CB01B9010E9447028881998180
:100940000C9699838883DF91CF9108950F931F931D
:100950008C0183E0D8018C938DE011968C931197D4
:1009600012961C9212978091C90213968C93F801EB
:10097000349680E2DF011D928A95E9F74091C90221
:10098000CF0168E671E050E00E943502C80184960C
:100990006DE771E044E350E00E9435021F910F9132
:1009A00008950F931F93CF93DF93809111028823B3
:1009B00099F080911302882379F460911602709166
:1009C000170280911402909115020E94FD0310926B
:1009D000110281E08093130280910E02882311F0AE
:1009E0000E94650380910F02882309F47EC0E09184
:1009F0001402F09115028181823081F0833020F45D
:100A0000813009F070C007C0833009F441C08430E0
:100A100009F069C03FC01092130265C09381913004
:100A200009F061C082818C3029F18D3030F488303A
:100A3000E9F18A3009F057C01BC0833129F18431B4
:100A4000A1F1803109F04FC0878180930202808537
:100A5000809303028185809304028285809305023E
:100A600083858093060284858093070286E01EC0FA
:100A700088E01CC0A8E1B2E0379680E201900D92B8
:100A80008150E1F787E012C0299A909308022BC0A9
:100A900084E00CC08281813030F1833018F08430E2
:100AA00011F507C029981092080283E08093100284
:100AB0001AC0938180E0248130E0282B392B21302B
:100AC000310519F02530310521F4299810920802DA
:100AD0000AC02230310519F02630310521F4299A57
:100AE00081E08093080210920F02909110029430DE
:100AF00009F40FC2953040F4923091F0933008F031
:100B0000ADC1992359F013C2973009F4FCC0983055
:100B100009F455C1963009F00AC244C082E005C20A
:100B2000E0911402F091150280EB8083E0911402B1
:100B3000F09115029183E0911402F091150280E189
:100B40008283E0911402F09115021382E091140265
:100B5000F091150281E084832091140230911502F6
:100B60002A98C901FC019C012B5F3F4F80818EBDFB
:100B70000DB407FEFDCF8EB58193E217F307B1F7F1
:100B80002A9AE0911402F091150280EC8083E091A2
:100B90001402F09115022A9880818EBD0DB407FED3
:100BA000FDCFB3C18091DA01813041F0813020F076
:100BB000843008F0BCC141C088E0B7C1E0911402A4
:100BC000F091150280EB8083E0911402F091150200
:100BD00082E08183E0911402F09115028AE0828321
:100BE000809114029091150203960E94A604209110
:100BF0001402309115022A98C901FC019C01255A62
:100C00003F4F80818EBD0DB407FEFDCF8EB5819321
:100C1000E217F307B1F72A9AE0911402F091150256
:100C200080EC8083E0911402F09115022A98808173
:100C30008EBD0DB407FEFDCF68C1E0911402F091A6
:100C4000150280EB8083E0911402F091150282E09E
:100C50008183E0911402F09115028CE0828300916F
:100C6000140210911502F8013396D80113961C92C4
:100C70008091CA0281838091C90282831382F80124
:100C8000379680E2EF0119928A95E9F74091C902FF
:100C9000CF0168E671E050E00E943502095D1F4F08
:100CA00080E4F80111928A95E9F74091CA02C801DF
:100CB00062E771E050E00E94350220911402309109
:100CC00015022A98C901FC019C0129593F4F8081D6
:100CD0008EBD0DB407FEFDCF8EB58193E217F307ED
:100CE000B1F72A9AE0911402F091150280EC80830A
:100CF000E0911402F09115022A9880818EBD0DB406
:100D000007FEFDCF02C1E0911402F091150280EBC5
:100D10008083E0911402F091150282E08183E091DA
:100D20001402F091150288E0828300911402109160
:100D30001502D8011396E8011B828091C902119611
:100D40008C931197F801359680E2EF0119928A95FC
:100D5000E9F711964C91CF0168E671E050E00E94EE
:100D60003502D8019596E8E1F2E080E201900D921B
:100D70008150E1F780911402909115022A989C010C
:100D8000F9012B5B3F4F80818EBD0DB407FEFDCF77
:100D90008EB58193E217F307B1F72A9AE091140216
:100DA000F091150280EC8083E0911402F09115021D
:100DB0002A9880818EBD0DB407FEFDCFA6C0E091BC
:100DC0001402F091150280EB8083E0911402F091FF
:100DD000150282E08183E0911402F091150284E112
:100DE0008283E0911402F091150281E08383E09107
:100DF0001402F09115028AE08483E0911402F091CC
:100E0000150283E18583E0911402F09115021682A8
:100E100020911402309115022A98C901FC019C010D
:100E2000295F3F4F80818EBD0DB407FEFDCF8EB58B
:100E30008193E217F307B1F72A9AE0911402F09137
:100E4000150280EC8083E0911402F09115022A983B
:100E500080818EBD0DB407FEFDCF57C0E091140216
:100E6000F0911502EF01239680EB8083A09114028C
:100E7000B091150282E011968C93A0911402B0916A
:100E8000150283E112968C938091DA01838380911D
:100E9000C9028983359680E2DF011D928A95E9F7C0
:100EA0004091C902CF0168E671E050E00E9435022E
:100EB0001BA21AA28091DB01813011F0823009F46B
:100EC0008CA380911402909115022A989C01F9013B
:100ED000275D3F4F80818EBD0DB407FEFDCF8EB5DF
:100EE0008193E217F307B1F72A9AE0911402F09187
:100EF000150280EC8083E0911402F09115022A988B
:100F000080818EBD0DB407FEFDCF8EB580832A9AF9
:100F10000BC0809114029091150266E172E00E946C
:100F2000700481E08093120285E080931002DF91CB
:100F3000CF911F910F91089584B18E6284B9249846
:100F400084E085B980E58CBD81E08DBD8DB58EB521
:100F500010920E0210920F021092100210920802CC
:100F600010921102109212021092130287EC93E079
:100F7000909315028093140280E991E090931702F8
:100F8000809316020E9468020E94FB028FEF60E0CD
:100F90000E942A0380EC61E00E942A0388E691E027
:100FA0000E943E028093C90282E791E00E943E02C5
:100FB0008093CA0208950F931F93609188037091E4
:100FC000890361157105F1F06733710518F487EC39
:100FD00093E013C00DEF13E09B0126533040609166
:100FE000910370919203C801A9010E944702609188
:100FF000880370918903C801C6970E94640481E048
:101000000E945E041F910F9108950E944F0408955D
:101010000F931F930E940508909389038093880380
:10102000892B81F10091D3031091D40380E098E0E3
:101030000E94AB0A0817190769F481E00E94C50AEB
:101040008091880390918903892B09F458C00E94EC
:10105000801115C00091D3031091D40386E098E06D
:101060000E94AB0A0817190709F049C00E94311302
:101070008091880390918903892B09F440C00E94D4
:10108000DB073DC088E392E00E941809892BB9F183
:1010900088E392E00E94060985E993E09093940327
:1010A0008093930382E00E94C50A80918803909107
:1010B0008903892B21F00E9480110E94DB07809117
:1010C000880390918903892B71F488E492E00E944F
:1010D0001809892B41F088E492E00E9406090E94D9
:1010E0001A110E94DB0780E492E00E941809892B04
:1010F00031F080E492E00E9406090E94ED101F91F9
:101100000F910895CF92DF92EF92FF920F931F936A
:101110000E946D04FC0110810181F280E380D48083
:10112000C58088E392E044EF51E060E070E00E9407
:101130003A0980E492E040E157E260E070E00E940A
:101140003A0988E492E040E355E760E070E00E94ED
:101150003A090E940E0A1093500200935102F09235
:101160005202E0925302D0925402C09255029091E2
:10117000D00180E04091D10150E0482B592B3091B3
:10118000CE0120E08091CF0190E0822B932B9093B1
:10119000C3038093C4035093C5034093C603909147
:1011A000D40180E04091D50150E0482B592B30917B
:1011B000D20120E08091D30190E0822B932B909379
:1011C000BB038093BC035093BD034093BE03909137
:1011D000D80180E04091D90150E0482B592B309143
:1011E000D60120E08091D70190E0822B932B909341
:1011F000BF038093C0035093C1034093C2031F9168
:101200000F91FF90EF90DF90CF900895FC018081C7
:101210009181A281B3812481358146815781820FDA
:10122000931FA41FB51F80839183A283B383089566
:101230000F931F938C010E946502E0E0F0E0D8015B
:101240002D913D914D915C911397621B730B840B13
:10125000950B14962D913D914D915C9117976217C6
:1012600073078407950710F0E1E0F0E0CF011F91CC
:101270000F9108950F931F938C01FC0144835583B4
:10128000668377830E946502F8016083718382839D
:1012900093831F910F910895FC015381560F509332
:1012A0008F03272F33274281420F40938E03A18162
:1012B000A0938D03E081E0938C03842F90E082174C
:1012C000930748F48A2F8F5F80938D03882319F446
:1012D000EF5FE0938C03852F90E07070861797077F
:1012E00090F4842F8F5F80938E03882361F4809124
:1012F0008D038F5F80938D03882329F480918C0365
:101300008F5F80938C030895E5EDF3E040E050E0BB
:10131000308120E08181B901680F711D460F571F90
:101320004617570710F44F5F5F4F329673E0E83E61
:10133000F70770F383E0E83EF80751F4908180E00E
:10134000480F591F4817590718F44F5F5F4F06C0E1
:101350004115510519F42FEF3FEF02C0342F252F0F
:10136000C90108958091D803682F70E064517040DE
:101370009091D70380E0680F791FAB014A5F5F4F00
:10138000E1EEF3E0308120E08181D901A80FB11DA9
:101390004A0F5B1F4A175B0710F44F5F5F4F32968F
:1013A000B3E0E83EFB0770F383E0E83EF80749F45A
:1013B000908180E0480F591F4817590710F44F5F7C
:1013C0005F4F68517C4FE9EEF3E00EC0308120E0C2
:1013D0008181D901A80FB11D4A0F5B1F4A175B0716
:1013E00010F44F5F5F4F3296E617F70778F3E61772
:1013F000F70751F4908180E0480F591F48175907AB
:1014000018F44F5F5F4F06C04115510519F42FEFD7
:101410003FEF02C0342F252FC90108951092BA035F
:101420001092B9031092AE0381E080935E0280E0D7
:1014300094E090935D0280935C020895DC014091FA
:10144000AE03E0919903F0919A0320915C023091F0
:101450005D022F5F3F4F5DE72030350710F020E041
:1014600030E1922F832F442319F0E817F90789F30D
:1014700020935C0230935D0280E090E0442329F4E5
:1014800010925E02E5E9F3E00AC0473011F485E905
:1014900093E0FC0181E080935E02309779F182E075
:1014A000818F80915802848780915902858780912D
:1014B0005A02868780915B02878789E491E0938B4B
:1014C000828B958B848B81E090E0918B808B138E47
:1014D00081E0828F83E0808F168A80E1878B34835E
:1014E0002583778366838D919C9111979183808367
:1014F00012968D919C91139793838283CF010895C7
:101500009C018091B9039091BA03892B39F4109210
:101510005E023093BA032093B903089581E080936B
:101520005E020895BC018091930390919403089604
:101530000E944C09E0919303F091940380918C03F5
:10154000808780918D03818780918E03828780912F
:101550008F0383870895282F892F922F0895AC0138
:10156000FB011616170684F460935905F0935A058B
:1015700020918A0330918B038217930729F0C901C8
:10158000BA01AF010E94470208950F931F93CF93B2
:10159000DF93C0919303D09194032DEF33E0309308
:1015A00092032093910330938B0320938A0383301B
:1015B00059F4898D8F70833009F004C68889998920
:1015C000892B09F0FFC589C0823009F08AC080915B
:1015D0005B028F5F80935B02882399F480915A02AB
:1015E0008F5F80935A02882361F4809159028F5F44
:1015F00080935902882329F4809158028F5F809349
:101600005802109289031092880310925A05109282
:101610005905298D273011F0253041F48A8D8F5FCF
:101620008A8F883709F0CEC5198ECCC5222309F4DC
:10163000C9C588899989892B09F44BC08A8D815045
:101640008A8F8F5F09F0BEC53B8D383029F021505D
:10165000223048F4353039F4198E80E880939003B5
:101660000E94901765C4353010F080E307C083E016
:1016700090E002C0880F991F3A95E2F78A8F8B8D10
:101680008F5F8B8F898D90E08F7090708330910584
:10169000D1F08430910544F48130910509F42EC2D3
:1016A000029709F08FC50CC08630910509F4D3C3A9
:1016B0008830910509F4CFC3049709F083C5CBC3E3
:1016C0001092F6031EC284E0809390030E9490174C
:1016D00064C42F70233009F075C588E080939003AF
:1016E0001BC48901085210408091D503853409F04C
:1016F00069C59091D70380E02091D803AC01420FD7
:10170000511D80918803909189038417950708F4EF
:1017100059C550938903409388038091DB0390E07F
:101720008F739070892B09F04DC58091DC0388235D
:1017300009F048C52091C3033091C4038091E001B2
:101740009091E1012817390731F48091C5039091F8
:10175000C603892BA1F08091E5039091E6038217DF
:10176000930709F02FC52091E7033091E80380919A
:10177000C5039091C6032817390709F023C50E94B5
:1017800084098F5F9F4F09F01DC58091DE0386306D
:10179000D1F1813009F016C58091E903883009F054
:1017A00011C51092E9038091EB039091EC03EFEFE8
:1017B000873F9E0710F0099601C008969093EC03AE
:1017C0008093EB038091E1039091E2039093E60311
:1017D0008093E5038091E3039091E4039093E80301
:1017E0008093E7038091C3039091C4039093E20335
:1017F0008093E1038091C5039091C6039093E40325
:101800008093E303E3C40E94B2098F5F9F4F09F006
:10181000D9C4C5E9D3E0898D882329F12091EB0350
:101820003091EC038C819D8128173907E1F42091D8
:10183000E9033091EA038E819F812817390799F4D3
:101840002091E1033091E2038881998128173907BB
:1018500051F42091E3033091E4038A819B8128179E
:10186000390709F467C1A49623E0C539D20799F274
:1018700090F28091F6038F738230F1F48091EB0344
:101880009091EC03909361028093600210925E024B
:1018900041E00EC020916002309161028091B90355
:1018A0009091BA032817390709F470C040935E027B
:1018B00080915E02882371F38091F60382FD82C4D9
:1018C00084E1F80181A388E290E0909389038093FA
:1018D000880380E580A39091F0038091F403838FC7
:1018E0003091EF038091F303828F368F4091EE03A6
:1018F0008091F203818F458F2091ED0320935E024A
:101900008091F103808F248F9F5F978F992361F4DB
:10191000832F8F5F868F882339F4842F8F5F858F85
:10192000882311F42F5F248F2091E9033091EA037B
:1019300030936102209360028091EB039091EC035D
:10194000F801958B848B378B268B8091E1039091E6
:10195000E2039093E6038093E5038091E303909183
:10196000E4039093E8038093E7038091C30390918D
:10197000C4039093E2038093E1038091C5039091A7
:10198000C6039093E4038093E303DEC310925E02E8
:10199000C0E0D0E021E014C08091AE03882319F4A8
:1019A000C5E9D3E014C0873049F4209729F090911D
:1019B000AF038A8D891710F4C5E9D3E020935E0246
:1019C00080915E02882341F3209709F4FBC3D093F2
:1019D0009403C093930383E08A8F888F1E8A84E0E8
:1019E0008F8B1B8E8091EB039091EC039D838C83F6
:1019F0008091E9039091EA039F838E838091E103B4
:101A00009091E203998388838091E3039091E403AA
:101A10009B838A8381E0898F809158028C87809193
:101A200059028D8780915A028E8780915B028F8741
:101A300081E090E0998B888B8091F0038B87809177
:101A4000EF038A878091EE0389878091ED03888771
:101A500081E090E00E94920A8091F50390E0807FFF
:101A60009070813591050CF449C010925E0234C02B
:101A7000F901E953FC4F86A980935F028823F1F1B5
:101A8000813021F44F5F40935E0226C08230C1F462
:101A900087A98430A9F430AD20E081AD90E0822B9D
:101AA000932B9093610280936002F1E08A349F0748
:101AB00010F089E491E09B8B8A8B9D8B8C8B1EC0F0
:101AC00090915E02E92FF0E0E953FC4F87A988234B
:101AD000A9F0890F80935E0240915E02242F30E0CE
:101AE0008091F50382958F7090E00597880F991F7C
:101AF000880F991F281739070CF4BACF80E180931B
:101B0000F6038091F60382608093F60382E080936F
:101B1000FD0384E08093FE0381E08093FF0389E46A
:101B2000809300048CE290E0909389038093880373
:101B300080E6B7C2D0939403C093930310929003AE
:101B40008091F603482F50E082FF03C0198E80E297
:101B500051C28091F50382958F70880F880F809312
:101B60005E02209188033091890324513040281B64
:101B700031093093890320938803898D8F708230D7
:101B800029F44F7350704231510509F1232B39F478
:101B90008091F60390E083709070892BC1F0909152
:101BA000ED038885981709F072C29091EE0389853C
:101BB000981709F06CC29091EF038A85981709F085
:101BC00066C29091F0038B85981709F060C28091EE
:101BD000F60384FF51C0688979896115710509F49C
:101BE0004BC0CE010C960E944C092091F1038091CC
:101BF0008C03281709F040C09091F20380918D0367
:101C00009817D1F59091F30380918E039817A1F561
:101C10009091F40380918F03981771F52C87809130
:101C20008D038D8780918E038E8780918F038F87A0
:101C30008B8D8823D1F42E89988D8A8D981B822FC5
:101C4000869586958695981B392F320F3E8B8F8906
:101C5000282F26952695821B97FD9195890F8F8BAE
:101C6000369536953695830F888F81E08093900363
:101C7000888D8A8F198A188A898D282F30E0C901AA
:101C80008F7090708430910509F4B9C18530910549
:101C90005CF48230910591F1833091050CF0B1C074
:101CA000019709F08FC210C08630910509F4E7C191
:101CB000863091050CF4C3C18730910509F4E7C162
:101CC000089709F07FC290C18091900380FF7AC28B
:101CD00083E0898F80E480939003198A188A209189
:101CE0008803309189032115310509F411C182E47B
:101CF00080939003C9010E94920A0AC180919003C7
:101D000080FF74C08091F6038F73823109F06EC03A
:101D10008091F50390E0807F9070813591050CF4FF
:101D200049C010925E0234C0F901E953FC4F86A904
:101D300080935F028823F1F1813021F44F5F40935B
:101D40005E0226C08230C1F487A98430A9F430AD88
:101D500020E081AD90E0822B932B909361028093E1
:101D6000600221E08A34920710F089E491E09B8BB5
:101D70008A8B9D8B8C8B1EC090915E02E92FF0E0C8
:101D8000E953FC4F87A98823A9F0890F80935E024D
:101D900040915E02242F30E08091F50382958F7090
:101DA00090E00597880F991F880F991F281739070A
:101DB0000CF4BACF83E0898F8091ED0388878091FE
:101DC000EE0389878091EF038A878091F0038B87E8
:101DD00081E090E00E94920A82E480939003198A45
:101DE000188A109289031092880392C080E280932F
:101DF00090030E949017E0919303F0919403118E49
:101E00005BCD8091F60380FF2AC024FD28C088891D
:101E10009989892B09F0D6C1809188039091890313
:101E200001960E94920A20919003822F80618093F4
:101E300090038091880390918903892B19F0226186
:101E4000209390030E94901781E090E0998B888BFB
:101E500088E0898F1B8E81E18093F6031BC185FF8B
:101E600021C06091FB03362F20E04091FC0350E03D
:101E7000242B352B8091910390919203820F931F15
:101E80009093920380939103962F80E0842B952B5F
:101E90002091880330918903281B390B30938903E3
:101EA00020938803209188033091890321153105FF
:101EB00059F0898D84FD08C08091900382608093E1
:101EC0009003C9010E94920A9091F70380E020914B
:101ED000F803820F911D90936102809360022C8918
:101EE0003D892817390710F0892B21F430936102BE
:101EF0002093600280916002909161029B8B8A8B9B
:101F00008091900390E083709070892B09F45AC1FE
:101F100010925A05109259050E94901780919003D3
:101F2000282F85FF07C010925A0510925905198E67
:101F300084E192CF84FF0AC010925A05109259058D
:101F400081E090E0998B888B84E083CF8091590564
:101F500090915A05892B01F120FF02C0198A188A35
:101F6000888999890097A1F42A893B89809159052C
:101F700090915A052817390720F430935A05209379
:101F800059058091590590915A05998B888B04C009
:101F900090935A05809359051B8E80918A039091E6
:101FA0008B039093920380939103809159059091B4
:101FB0005A05892B59F088899989009739F08896B4
:101FC000909389038093880388E10BC080919003EC
:101FD00081FFF8C088E290E09093890380938803A2
:101FE00080E18093F6035CC08091900380FFEAC09B
:101FF000198E80E1809390030E949017E3C0809136
:10200000880390918903009711F00E94920A8091B1
:10201000F6039091900380FF0BC090FF06C087E00D
:10202000898F1A8E198A188A19C086E0898F16C07E
:1020300090FF1EC085E0898F198A188AC3C08091DD
:10204000880390918903009711F00E94920A809171
:10205000F60380FF0DC087E0898F1A8E81E090E043
:102060000E94920A80E1809390030E9490170FC013
:102070008091880390918903892B49F4A3C08091B2
:10208000900380FF9FC087E0898F1A8E9BC080E1FC
:10209000F80181A388E290E09093890380938803FC
:1020A00080E58093F50388858093F103898580938B
:1020B000F2038A858093F3038B858093F4038C85E8
:1020C0008093ED038D858093EE038E858093EF03DF
:1020D0008F858093F00386E08093DE038C819D8161
:1020E0009093EA038093E9038E819F819093EC03A0
:1020F0008093EB038091C3039091C4039093E20318
:102100008093E1038091C5039091C6039093E4030B
:102110008093E303888199819093E6038093E5039C
:102120008A819B819093E8038093E703898D84FFE4
:1021300005C01092F8031092F70306C081E0809367
:10214000F70389E48093F80380E48093DD038091B2
:1021500089038093D703809188038093D8031092DA
:10216000FC031092FB031092FA031092F9030E94F1
:10217000B209809590959093FA038093F90385E4D2
:102180008093D5031092D6031092DC031092DB03E8
:102190008091560290915702019690935702809336
:1021A00056029093D9038093DA031092E0031092C1
:1021B000DF030E948409809590959093E0038093BB
:1021C000DF0304C0109289031092880310929003D9
:1021D000DF91CF911F910F9108958091C0028F5F81
:1021E0008093C0021092BE024BE01FC0249FF001FA
:1021F0001124EE59FD4F8281938120813181822B00
:10220000932B892B69F08091C00290E02285821B7C
:1022100091098837910524F010821182128213826D
:102220008091BE028F5F8093BE022091BE02283053
:10223000E8F2089587EC93E06FEF70E046E050E03D
:102240000E945002A7EEB3E0E0E5F2E086E00190E4
:102250000D928150E1F7ADECB3E0E0E5F2E086E00D
:1022600001900D928150E1F7ADEDB3E0E0E5F2E0D1
:1022700086E001900D928150E1F72091C3033091E7
:10228000C4033093EE032093ED038091C503909136
:10229000C6039093F0038093EF033093E4032093FD
:1022A000E3039093E6038093E50380E092E090934C
:1022B000DC038093DB0380E091E09093D60380936E
:1022C000D50388E090E09093D8038093D70386E00D
:1022D0008093D90384E08093DA0388E096E09093BA
:1022E000D4038093D3038DEF93E090939203809374
:1022F00091038AE290E09093890380938803089584
:102300004091E5035091E6038091E4019091E5014D
:102310004817590789F48091E7039091E8038F5F8C
:102320009F4F51F4A7ECB3E0E8EEF1E086E00190B6
:102330000D928150E1F7CFC08091C3039091C40307
:10234000842795272091BF033091C00382239323D4
:10235000892B91F46091E7037091E8038091C503A4
:102360009091C603862797272091C1033091C2031D
:1023700082239323892B89F08091BB039091BC0326
:102380009093BB028093BA028091BD039091BE03EB
:102390009093BD028093BC0208C05093BB0240934F
:1023A000BA027093BD026093BC021092BE026091AB
:1023B000BA027091BB024091BC025091BD02E0E0B4
:1023C000F0E020E03BE013C0239FF0011124EE5920
:1023D000FD4F808191816817790741F48281938153
:1023E0004817590719F42093BE026DC02F5F28309B
:1023F00058F32093BE02283009F065C087EC93E0C3
:102400006FEF70E046E050E00E945002E7EEF3E02C
:1024100086E0DF011D928A95E9F77A97A0E5B2E0A0
:1024200086E00D9001928150E1F7ADEDB3E0E0E57B
:10243000F2E086E001900D928150E1F78091BA02BE
:102440009091BB029093EE038093ED038091BC02C8
:102450009091BD029093F0038093EF038091C303AA
:102460009091C4039093E4038093E3038091C503A8
:102470009091C6039093E6038093E50380E091E09A
:102480009093DC038093DB039093D6038093D50372
:1024900088E090E09093D8038093D70386E0809300
:1024A000D90384E08093DA0388E096E09093D40324
:1024B0008093D3038DEF93E09093920380939103E5
:1024C0008AE290E01CC0A7ECB3E0349686E001906D
:1024D0000D928150E1F7ADECB3E0E0E5F2E086E08B
:1024E00001900D928150E1F788E090E09093D40341
:1024F0008093D30380918803909189030E969093E3
:102500008903809388030895DF92EF92FF920F93DF
:102510001F93CF93DF93DC01062FD72E1092BE02BC
:10252000E0E0F0E060E01BE02BC0619FF0011124CF
:10253000EE59FD4F408151814115510501F1228134
:10254000338121153105D9F08D919C911197841714
:102550009507A9F412968D919C9113978217930772
:1025600071F46093BE02EF012496802F9D2D9C0193
:10257000D90186E00D9009928150E1F767C06F5F45
:10258000683098F21092BE0220E03BE011C0239F19
:10259000F0011124EE59FD4F80819181892B39F48E
:1025A00082819381892B19F42093BE023CC02F5F56
:1025B000283068F32093BE022830A9F51092C1029A
:1025C0001092BF021091C002C12FD0E060E070E015
:1025D00040E08BE0E82EF12C18C0842F90E08E9D17
:1025E000F0018F9DF00D9E9DF00D1124EE59FD4FD1
:1025F00052859E01251B3109872F90E08217930792
:102600001CF4712F751B642F4F5F483030F36093BB
:10261000BF027093C1026093BE028BE0689FF0011D
:102620001124EE59FD4F8D919D910D90BC91A02DDF
:10263000EF0189939993A993B993202F3D2DC90157
:10264000DC0186E00D9009928150E1F78091C00293
:102650008287DF91CF911F910F91FF90EF90DF90D4
:102660000895CF93DF9380918803909189038A978F
:1026700028F41092890310928803A6C0109289034F
:1026800010928803C7ECD3E08091DB039091DC03C8
:1026900021E08030920729F08050924009F094C0E8
:1026A00076C02091ED033091EE038091C3039091A9
:1026B000C4032817390709F087C02091EF03309130
:1026C000F0038091C5039091C6032817390709F0DC
:1026D0007BC0CE014C96BE016A5E7F4F0E94841281
:1026E00080E092E09093DC038093DB03DE01909620
:1026F000FE01769686E001900D928150E1F7ADEDF6
:10270000B3E0E0E5F2E086E001900D928150E1F760
:10271000ADECB3E0E0E5F2E086E001900D9281508F
:10272000E1F7E7ECF3E0DF01909686E00D9001928F
:102730008150E1F78091E3039091E4039093EE03DD
:102740008093ED038091E5039091E6039093F0036D
:102750008093EF038091C3039091C4039093E403AB
:102760008093E3038091C5039091C6039093E603A1
:102770008093E50388E096E09093D4038093D3039D
:102780008AE290E090938903809388031DC0209192
:10279000ED033091EE038091C3039091C403281799
:1027A000390791F42091EF033091F0038091C50334
:1027B0009091C6032817390739F4CE014C96BE0113
:1027C0006A5E7F4F0E948412DF91CF910895FC01D1
:1027D0008685882311F4758764870895FC018685B2
:1027E000882329F487EC92E0BF010E9455140895D4
:1027F000CF92DF92EF92FF920F931F937C01FB0128
:10280000CA016901418150E0308120E0422B532B05
:10281000D7015C9311964C931197528140E023812C
:1028200030E0242B352B12963C93129713962C9361
:102830000E94AB0AF70195838483D782C6821187F1
:10284000008713861286158614861686108A1786C8
:10285000128A118A148A138A1F910F91FF90EF90A8
:10286000DF90CF9008956093C4020895E0919303A0
:10287000F09194033097C1F080A191A1248D358D02
:10288000AC01421B530B019691A380A357FD0CC0D2
:1028900082899389481759073CF4E0919103F0919C
:1028A0009203E40FF51F60830895DB01E091C502F8
:1028B000F091C602309729F47093C6026093C50266
:1028C00009C0CF010388F489E02D3097D1F7FC01CE
:1028D000B48BA38B81E01E968C93089582EF91E0D8
:1028E0009093C8028093C70208950E9408080E942E
:1028F000D104E091C502F091C6023097C1F0648125
:102900007581CF010E941E0ADC01009781F0E091E1
:10291000C502F091C6029396FC93EE939297838939
:1029200094899093C6028093C502148A138A0895ED
:10293000EF92FF920F931F93CF93DF93EC018B01E4
:10294000E0919303F091940382A193A1892B81F5E7
:10295000CE0160E071E044E050E00E945702009731
:1029600039F524969E01200F311FFE011DC0808184
:102970008032D1F411928F01E0909303F090940390
:102980000C1B1D0BC8010E943301F70182A393A306
:10299000E0919303F091940382A193A1BE01A80159
:1029A0000E94470280E008C03196E217F307F8F270
:1029B00080E0012B09F481E0DF91CF911F910F910D
:1029C000FF90EF900895EF92FF920F931F93CF9394
:1029D000DF937B01E80EF91EEC018C010F5F1F4FA6
:1029E0009C011BC088818A30A9F4BE01621B730B55
:1029F0008A9121968D3011F461507040F901E60FF3
:102A0000F71F1082C9010E949814882311F081E0F9
:102A100008C0980121960F5F1F4FCE15DF0510F3F8
:102A200080E0DF91CF911F910F91FF90EF9008957B
:102A30000F931F93CF93DF938C01EB01FB01649104
:102A400006C0C8010E94A01B2196FE016491662366
:102A5000C1F7DF91CF911F910F9108950F931F93AD
:102A60008C010E941815C8010E94B01B1F910F9184
:102A70000895682F8091CD018F3F11F00E94991920
:102A80000895682F8091CC018F3F11F00E94991911
:102A900008950F931F93CF93DF93009193031091A9
:102AA0009403F80160A171A1848D958D681B790B49
:102AB00077FF02C060E070E0F80182899389EB0142
:102AC000861797070CF4EC018091C402882389F0E3
:102AD00085E793E066E071E00E94A81B85E793E03C
:102AE000BE010E94B11C85E793E06AE071E00E949C
:102AF000C71B8091910390919203BE010E94AF0A7F
:102B0000F801D78FC68F81E00E944115DF91CF91E8
:102B10001F910F910895CF92DF92EF92FF920F9342
:102B20001F93CF93DF93E0909303F0909403D7012A
:102B300092960D911C91939791961C921E9290974C
:102B4000DD24F80187859089892B29F0DD24D39431
:102B50006DE071E002C063E171E087EC92E00E94F9
:102B60001815D80118966D917C91199787EC92E011
:102B70000E94A81B87EC92E06FE870E00E942E157F
:102B800087EC92E068E171E00E941815F801668117
:102B9000778187EC92E00E94C71BD8011A968D912D
:102BA0009C911B97892B69F087EC92E069E970E0B2
:102BB0000E941815F8016285738587EC92E00E94E7
:102BC000C71B87EC92E064EC70E00E942E15DD20BC
:102BD000E9F187EC92E06DED70E00E942E1587EC34
:102BE00092E06FEA70E00E942E15D7019096CD9189
:102BF000DC91919787EC92E00E94B01BF701C0A096
:102C0000D1A0D80151966D917C91529761157105B3
:102C100021F087EC92E00E94A81BD8011F96ED914D
:102C2000FC9150970995F70100A111A12697D1A316
:102C3000C0A3B8016C197D0987EC92E00E94B11C19
:102C4000D70191961C930E93909704C087EC92E065
:102C50000E94B01B0E944915DF91CF911F910F91E7
:102C6000FF90EF90DF90CF9008950F931F93CF9335
:102C7000DF93C0919303D09194030AA11BA180918B
:102C8000900386FF17C08091C402882379F085E7FE
:102C900093E061E171E00E94A81BD80116966D9146
:102CA0007C91179785E793E00E94C71B1D8E1C8EB1
:102CB0000E948B158091900380FF11C08C8D9D8D9B
:102CC0002E8D3F8D820F931F9D8F8C8F1F8E1E8E9A
:102CD00028A139A12817390711F00E948B1580917E
:102CE000900382FF02C00E948B158091900381FFA8
:102CF00035C081E00E9439158091C4028823D9F043
:102D000085E793E06FE171E00E94A81B6091880362
:102D10007091890385E793E00E94791C85E793E031
:102D200063E271E00E94A81BF8016681778185E764
:102D300093E00E94C71BD8011C96ED91FC911D9752
:102D4000309761F060918803709189036115710576
:102D500029F08091910390919203099580919003BD
:102D600085FD04C087FD02C084FF26C00115110542
:102D700019F18091C402882369F085E793E060E34C
:102D800071E00E94A81BF8016681778185E793E0D6
:102D90000E94C71BD8011C96ED91FC911D9730979E
:102DA00039F0809191039091920360E070E0099571
:102DB0001BA21AA2F8011686DF91CF911F910F91E5
:102DC0000895E0919303F091940311A210A287EC6F
:102DD00092E068E670E00E942E1587EC92E00E9477
:102DE000B01BE0919303F09194032091C2023091C3
:102DF000C30282A193A1F9010995882381F4E0918E
:102E00009303F091940311A210A287EC92E068E77B
:102E100070E00E942E1587EC92E00E94B01B0E9489
:102E200049150895CF93DF93C0919303D0919403F4
:102E30008091900386FF0EC08091C402882331F0F8
:102E400085E793E067E471E00E94C71B1D8E1C8E2E
:102E50001BA21AA28091900381FF25C081E00E94ED
:102E60003915609188037091890380919103909145
:102E700092030E94E3148823B1F08AA19BA1892BBD
:102E800091F08091C402882361F085E793E068E5C2
:102E900071E00E94A81B6AA17BA185E793E00E94D4
:102EA000C71B0E94E1168091900380FF15C08C8D96
:102EB0009D8D2E8D3F8D820F931F9D8F8C8F1F8E2A
:102EC0001E8E28A139A12817390721F480E18093AB
:102ED000900302C00E94E1168091900382FF02C01D
:102EE0000E94E11690919003892F807311F497FF4F
:102EF00014C08AA19BA1892B81F08091C4028823F0
:102F000031F085E793E060E771E00E94C71B8AA17A
:102F10009BA10E94DD011BA21AA2DF91CF9108950F
:102F200080E00E94411580E00E943915E0919303F2
:102F3000F0919403309751F08481958180509045B1
:102F400019F40E94121708950E9435160895CF9320
:102F5000DF93EB010E949C0780E060E673E040E0B5
:102F600050E00E94621802C00E94D1040E946104D5
:102F70008130D1F70E948208D093C302C093C2026D
:102F8000CD2B21F080E090E50E94800ADF91CF9167
:102F900008950F931F938BEC92E06CED71E040E588
:102FA00050E029E831E00CE911E00E94F8131F918C
:102FB0000F9108950E9427192091E0023091E102BB
:102FC0004091E2025091E30262177307840795076C
:102FD000C0F08BEC92E00E94EE138091E0029091A1
:102FE000E102A091E202B091E302805A9541A04033
:102FF000B0408093E0029093E102A093E202B0938C
:10300000E30287EC92E00E9475146AE070E080E0D1
:1030100090E00E9435194091E0025091E1026091E8
:10302000E2027091E30285E793E00E94A61C0E94F1
:103030002719AB01BC0185E793E00E946E1C85E770
:1030400093E062EC71E00E94C71B08950F931F93F9
:1030500007EC12E0C80160E070E00E94A71785E766
:1030600093E040E051EE60E070E00E94231AC80156
:1030700061E00E9433148BEC92E06BE478E10E94F3
:10308000E7131F910F9108950E945F190E9426185F
:103090000E94DA17FDCF0F931F93CF93DF938C011C
:1030A000EB0108C0F80161918F0185E793E00E9470
:1030B000A01B21971C161D06ACF3DF91CF911F9129
:1030C0000F910895823000F5E82FF0E0EE0FFF1F1A
:1030D000EC51FD4F71836083882319F08130A1F496
:1030E00008C0809169008C7F842B80936900E89AE6
:1030F000089580916900440F551F440F551F837F29
:10310000842B80936900E99A08951F920F920FB65D
:103110000F9211242F933F934F935F936F937F935D
:103120008F939F93AF93BF93EF93FF938091E402AC
:103130009091E502892B29F0E091E402F091E502FB
:103140000995FF91EF91BF91AF919F918F917F91E1
:103150006F915F914F913F912F910F900FBE0F9004
:103160001F9018951F920F920FB60F9211242F9354
:103170003F934F935F936F937F938F939F93AF93FF
:10318000BF93EF93FF938091E6029091E702892B22
:1031900029F0E091E602F091E7020995FF91EF91A5
:1031A000BF91AF919F918F917F916F915F914F915F
:1031B0003F912F910F900FBE0F901F9018951F9267
:1031C0000F920FB60F9211242F933F938F939F93DB
:1031D000AF93BF938091EC029091ED02A091EE022B
:1031E000B091EF023091F0020196A11DB11D232F85
:1031F0002D5F2D3720F02D570196A11DB11D209375
:10320000F0028093EC029093ED02A093EE02B09353
:10321000EF028091E8029091E902A091EA02B09158
:10322000EB020196A11DB11D8093E8029093E90283
:10323000A093EA02B093EB02BF91AF919F918F915F
:103240003F912F910F900FBE0F901F9018958FB741
:10325000F8942091EC023091ED024091EE025091F1
:10326000EF028FBFB901CA010895EF92FF920F9349
:103270001F937B018C018FB7F8944091EC02509121
:10328000ED026091EE027091EF028FBF2FB7F894BC
:103290008091EC029091ED02A091EE02B091EF02CC
:1032A0002FBF841B950BA60BB70BE816F9060A0770
:1032B0001B0760F71F910F91FF90EF90089578948E
:1032C00084B5826084BD84B5816084BD85B582602B
:1032D00085BD85B5816085BDEEE6F0E080818160C9
:1032E0008083E1E8F0E0808182608083808181607A
:1032F0008083E0E8F0E0808181608083E1EBF0E0B2
:10330000808184608083E0EBF0E080818160808355
:10331000EAE7F0E08081846080838081826080833E
:103320008081816080838081806880831092C10069
:103330000895482F50E0CA0189509E4FFC01249106
:10334000CA018D519E4FFC01949141535E4FFA0189
:1033500034913323D1F1222331F1233021F48091B0
:1033600080008F7705C0243031F4809180008F7DFC
:103370008093800018C0213019F484B58F7704C081
:10338000223021F484B58F7D84BD0DC0263021F418
:103390008091B0008F7705C0273029F48091B0006C
:1033A0008F7D8093B000E32FF0E0EE0FFF1FE55418
:1033B000FE4FA591B491662329F48C9190958923B1
:1033C0008C9308958C91892B8C9308951F920F9262
:1033D0000FB60F9211242F933F934F935F936F93E8
:1033E0007F938F939F93AF93BF93EF93FF934091FE
:1033F000C600E0917103F0917203CF01019660E87D
:1034000070E00E94D81C9C0180917303909174031A
:103410002817390739F0EF50FD4F4083309372037E
:1034200020937103FF91EF91BF91AF919F918F9185
:103430007F916F915F914F913F912F910F900FBEB0
:103440000F901F9018955F926F927F928F929F922C
:10345000AF92BF92CF92DF92EF92FF920F931F93A2
:10346000CF93DF93EC013A014B01413482E45807DA
:103470008FE0680780E078070CF07FC060E874E8B0
:103480008EE190E0A40193010E940D1D2150304077
:1034900040405040CA01B90122E030E040E050E035
:1034A0000E940D1D59016A01A601950120953095D4
:1034B0004095509594E0220F331F441F551F9A9555
:1034C000D1F760E074E284EF90E00E940D1DCA0124
:1034D000B9012FEF30E040E050E00E94B91CA40198
:1034E00093010E940D1DC90181509F4F18161906A6
:1034F0001CF4522E5A9403C055245394521A60E07F
:1035000079E08DE390E0A40193010E940D1D21500C
:10351000304040405040CA01B90122E030E040E074
:1035200050E00E940D1D209530954095509583E008
:10353000220F331F441F551F8A95D1F760E074E2B4
:1035400084EF90E00E940D1DCA01B9012FEF30E019
:1035500040E050E00E94B91CA40193010E940D1D9F
:10356000C90181509F4F181619061CF4822F8150F3
:1035700002C081E0821B851500F5E885F98581E0B0
:1035800090E00A8802C0880F991F0A94E2F78083AE
:1035900060E079E08DE390E0A40193010E940D1DAD
:1035A0002150304040405040CA01B90122E030E093
:1035B00040E050E00E940D1D04C0E885F9851082AE
:1035C0009501EC81FD813083EE81FF812083EA85C6
:1035D000FB85208141E050E0CA010E8402C0880FC3
:1035E000991F0A94E2F7282B2083EA85FB85208126
:1035F000CA010F8402C0880F991F0A94E2F7282B92
:103600002083EA85FB858081088802C0440F551F0E
:103610000A94E2F7842B8083DF91CF911F910F9161
:10362000FF90EF90DF90CF90BF90AF909F908F90E2
:103630007F906F905F900895FC01A085B1852189EE
:103640008C9190E0022E02C0959587950A94E2F73E
:1036500080FFF6CF0484F585E02D608308958CEF1C
:1036600091E0909376038093750381EF92E09093BD
:1036700078038093770385EC90E090937A038093AE
:10368000790384EC90E090937C0380937B0380EC3F
:1036900090E090937E0380937D0381EC90E0909383
:1036A000800380937F0386EC90E090938203809365
:1036B000810384E08093830383E08093840387E025
:1036C0008093850385E08093860381E08093870360
:1036D00008950F931F93CF93DF938C01EB0109C0E3
:1036E0002196D801ED91FC910190F081E02DC80167
:1036F000099568816623A1F7DF91CF911F910F9102
:103700000895EF92FF920F931F93CF93DF938C0155
:103710007B01EA010CC0D7016D917D01D801ED91CB
:10372000FC910190F081E02DC80109952197209727
:1037300091F7DF91CF911F910F91FF90EF90089536
:10374000DC01ED91FC910190F081E02D0995089547
:10375000DC01ED91FC910280F381E02D0995089543
:103760000F931F938C01DC01ED91FC910190F0818E
:10377000E02D6DE00995D801ED91FC910190F0816B
:10378000E02DC8016AE009951F910F9108950F93EC
:103790001F938C010E94A81BC8010E94B01B1F919F
:1037A0000F9108952F923F924F925F926F927F9266
:1037B0008F929F92AF92BF92CF92DF92EF92FF9241
:1037C0000F931F93DF93CF93CDB7DEB7A0970FB6BC
:1037D000F894DEBF0FBECDBF1C016A017B0141150D
:1037E00051056105710549F4DC01ED91FC910190F1
:1037F000F081E02D60E3099554C088249924540198
:10380000422E55246624772401E010E00C0F1D1F82
:10381000080D191DC701B601A30192010E94EB1CFE
:10382000F80160830894811C911CA11CB11CC70184
:10383000B601A30192010E94EB1CC901DA016C01DF
:103840007D01C114D104E104F104F1F681E0E82E18
:10385000F12CEC0EFD1EE80CF91C3E010894611CD5
:10386000711CD501C4010197A109B1096C01C818E7
:10387000D90814C0F601EE0DFF1D60816A3010F406
:10388000605D01C0695CD101ED91FC910190F08116
:10389000E02DC10109950894E108F1086E147F0438
:1038A00049F7A0960FB6F894DEBF0FBECDBFCF91FB
:1038B000DF911F910F91FF90EF90DF90CF90BF901D
:1038C000AF909F908F907F906F905F904F903F90C0
:1038D0002F9008952AE00E94D21B08950F931F9302
:1038E0008C010E946A1CC8010E94B01B1F910F919D
:1038F0000895AB0160E070E00E946A1C0895EF92A9
:10390000FF920F931F93CF93DF93EC017A018B010A
:1039100077FF0FC0E881F9810190F081E02D6DE221
:10392000099510950095F094E094E11CF11C011D9F
:10393000111DCE01B801A7012AE00E94D21BDF9120
:10394000CF911F910F91FF90EF9008950F931F93C8
:103950008C010E947F1CC8010E94B01B1F910F9117
:103960000895AB01662757FD6095762F0E947F1C56
:103970000895629FD001739FF001829FE00DF11DB9
:10398000649FE00DF11D929FF00D839FF00D749FD9
:10399000F00D659FF00D9927729FB00DE11DF91F85
:1039A000639FB00DE11DF91FBD01CF0111240895E2
:1039B00097FB092E07260AD077FD04D049D006D000
:1039C00000201AF4709561957F4F0895F6F7909551
:1039D00081959F4F0895A1E21A2EAA1BBB1BFD01E2
:1039E0000DC0AA1FBB1FEE1FFF1FA217B307E407DE
:1039F000F50720F0A21BB30BE40BF50B661F771F36
:103A0000881F991F1A9469F7609570958095909515
:103A10009B01AC01BD01CF01089597FB092E05263E
:103A20000ED057FD04D0D7DF0AD0001C38F45095D3
:103A30004095309521953F4F4F4F5F4F0895F6F7D2
:103A400090958095709561957F4F8F4F9F4F08950A
:103A5000AA1BBB1B51E107C0AA1FBB1FA617B707B4
:103A600010F0A61BB70B881F991F5A95A9F78095D0
:103A70009095BC01CD010895EE0FFF1F0590F491C4
:083A8000E02D0994F894FFCF3A
:103A8800474554202F0054582000206279746573EC
:103A980000436F6E6E656374656420746F20005216
:103AA8005820002062797465732066726F6D20005B
:103AB800456E64656420636F6E6E656374696F6ECE
:103AC8002077697468200053657276657220636F89
:103AD8006E6E65637465640050726F6365737369B5
:103AE8006E67207265717565737420666F72200049
:103AF80053657276657220636F6E6E656374696F65
:103B08006E20636C6F736564007A2D637562652E31
:103B180061707073706F742E636F6D002F676574BA
:103B2800636F6C6F723F7569643D30303A30303A7C
:103B380030303A30303A30303A3031267077643DA0
:103B480061007878780020005F050000FFFFC0A8BA
:103B58000164C0A80101FFFFFF0003014A7D358D04
:103B680000000000FFFFFFFFFFFFFFFFFFFF000057
:103B780000003614691B811B000000001C1B691B18
:023B8800811B9F
:00000001FF
